:020000040001F9
:201000004F414420494D4720FFFFFFFF0101FEFFFFFF0201FFFFFFFFFFFFFFFFC9BB010066
:2010200030303031BCC001002C00FFFF00FEFFFF1800000000100100C9BB0100303F00200F
:101040000044002001FEFFFF00000000001001002E
:201050002DE9F04385B011F8017B0446082F04F1FD0004F1FC0804F1760504F5A076844AC4
:20107000844BDFF8149213D0092F21D00F2F2FD0112F01BF287801286878102840F0D58065
:201090000A78327648787076012184F83D11EBE00025521C4E5D5F5D3E434E55575D3E4069
:2010B00046556D1C082DF5DB204601F0A9FB74E00024571C0D5D1E5D35430D553A5D154066
:2010D0000555641C082CF5DB022088F80000CBE098F80100820704D410F0110F57D01A2260
:2010F00066E008784A7800EB02203080CA78887800EB022070804A79087900EB0220B080DB
:20111000CA79887900EB0220F080087A30724A7A887A02EB00227281C87A0A7B00EB02203E
:20113000B0818A7B487B00EB0220F0810A7CC87B00EB022030828A7C487C00EB02207082D7
:201150000A7DC87C00EB0220B082487D897D00EB0120F082494801788A0658BF1A2212D558
:2011700004F5A670049071890391307A029021890191F0880090B38872883188204601F069
:20119000E8FDE0B11E2298F80100410710D40F2088F81500204609F02BF8002864D199F898
:2011B000000005B0BDE8F0434FF4804108F03CBB204605B0BDE8F0430F2109F01DB87088B6
:2011D000A882B188E9820221F0882883297400206882A18EA88AC91DE981618EB0EB510FA9
:2011F00002BFE88AA18E884202BF288BE18EB0EB111F18D02878012804BF68780F2805D0A5
:20121000687918B10F21A972FE2127E0FC21204608F0F6FFF0880090B38872883188A07924
:2012300008F0F2FF20E0102118E0491E204608F0EFFF032F18D1A878042818BF0D2813D182
:201250006E78142E18BF0E2E0ED12F78204608F0E3FF012F06BFAE72FD213146204605B0B8
:20127000BDE8F04308F0CCBF05B0BDE8F08300BFEC4D00208C4300206E4F0020144E0020D0
:201290002DE9F04F85B011F801ABDFF86835DFF868C5DFF868B58146AAF10200132809F1FA
:2012B000FD0209F1F40609F59C7709F1860809F5AC7409F1660500F28B82DFE810F0D40075
:2012D000890214004000430070028902980089027000A80073007800DA008F01D501CB00AE
:2012F0007802DF01DF0109F1A0040822204608F097FF06460821204608F096FF09F19807E7
:2013100004223146384608F08BFF0421384608F08BFF00204142494409EB000291F89F109D
:2013300082F8BF10401C0828F4DB09F1C702214609F1D70008F07CFF0020A87157E20121F7
:20135000B17154E23178707A012900F010000DD130B100207870316CB878490808F0D4FCBB
:2013700099F80600002108F067FF0FE040B1326CDFF88C0409F59D735208494608F062FC15
:2013900099F806000122002108F05AFF01202870484608F059FF0121A971B17027E20121F2
:2013B000F17024E2087870700121F1711FE2A87918B93D2030770120F076707A000701D48E
:2013D0000E2037E100205F1C0B5C1CF8006033430B543C5C23401354401C0828F4DB28780F
:2013F00008B90921C5E1484601F00AFAF5E100205F1C0B5C1CF8004023430B543C5C2340DD
:201410001354401C0828F4DB02203072EFE1A87920B93D2101203177F076E8E1707C012801
:2014300003D10C2171770721A3E111F8010B3075022209F5857008F0F3FE0146022209F5E4
:20145000867008F0EDFEF07C012100287174E4D10C218EE1707AC10601D41220EAE04846A7
:2014700008F0F6FEB9E1087830770021F176F021F4E0737A980704D413F0110F70D01A223F
:20149000DEE0287C012804BF687C0F2808D0687D08B16A7C12B12A7F012A03D158070BD5CD
:2014B0002322CDE010B1687C012803D098F80A00012806D1580702D40F2171778AE12A22EB
:2014D000BEE008784A7800EB02203881CA78887800EB022078814A79087900EB0220B88184
:2014F000CA79887900EB0220F881087A38744A7A887A02EB00227A82C87A0A7B00EB02203F
:20151000B8828A7B487B00EB0220F8820A7CC87B00EB022038838A7C487C00EB02207883CF
:201530000A7DC87C00EB0220B883487D897D00EB0120F88309F5A6700490798A0391387C43
:201550000290B9F808100191F8890090BB897A893989484601F0FDFB18B1707A41076ED4C0
:2015700067E07889A8F804000022B989A8F806100221F889A8F8080088F80010A8F80220B7
:20159000B9F83400C01DE883B9F83210B8F80400B0EB510F02BFB8F80600B9F83410884236
:2015B00002BFB8F80800B9F83610B0EB111F13D0687D18B10F21A976FE21DAE0FC2148467C
:2015D00008F01EFEF8890090BB897A89398999F8060008F019FE0AE10021CAE08A78C8782F
:2015F0000F798C7902EB0025487907EB0027C87901F10B0204EB00240492BBB2487A8A7A46
:2016100000EB022080B20390087A0290B9F808200192A2B2009291F800C048780CEB002062
:2016300081B2AAB2484601F094FB80B1707A410702D40F207077CDE0484608F0EDFD1E2251
:20165000484605B0BDE8F04F0F2108F0D5BDA8F80450A8F80670A8F808400021484605B043
:20167000BDE8F04F08F0F8BD087820704A786270487870700121F1717971B8E00A7848783D
:2016900002EB0022628209F5BC778878CA7800EB0220E0824A79087900EB02202082887971
:2016B000C97900EB0120A08209F5AC7109F5AC70CA8A8089A18B904288BF1046A083884290
:2016D00009F5AC7009F5AC7100894A8A218B14BF01260026904288BF1046884214BF01216E
:2016F00000210E4320830122A18B387908F0B8FD218B814205D3A18B3879012208F0B0FD2C
:20171000014609F5AC70798009F5AC7140890A8A904288BF1046628B6083904214BF0121E1
:2017300000210E43824209F5AC7009F5AC728941C089938AE28BC90F984288BF1846904267
:2017500014BF012200221643E08311B1484608F08BFDBAF1140F19D146B1E08B0090638B3D
:20177000A28B218B99F8060008F082FD287830B91521484605B0BDE8F04F08F041BD484608
:2017900005B0BDE8F04F152101F0CEB91EB1387840F008003870397841F0200108E0087828
:2017B0000F2807D0122802D0142806D01FE0002139701CE00120387119E099F8780140F02B
:2017D000020089F8780140F0100089F878010EE086F81DA0484608F00BFD40B99BF8000080
:2017F00005B0BDE8F04F4FF4804108F01DB805B0BDE8F08FEC4D00208C4300206E4F002071
:20181000018B00102DE9F84FDFF8BC13DFF8BC23DFF8BC5308700821002010600D23DFF845
:20183000B4034FF44D72017043808280DFF8A8030560AC7EDFF8A4030470FF2CE97E417063
:2018500008BFFF292A7F82706B7FC370AE7F0671ED7F457115D1FF2A08BFFF2B11D1FF2EFC
:2018700008BFFF2D0DD1DFF878130A7802704B7843708A788270CB78C3700A790271497999
:201890004171DFF860130278DFF85C83DFF85C93DFF85C730A70FF2543784B7082788A7098
:2018B000C378CB7002790A714079487188F8005088F8015088F8025088F8035088F8045020
:2018D00088F805500020CB490880D9F83440CA49607808702278C9493A70A0780870A268CF
:2018F0001079C74A411E1170E078C649C64A0870E068106008B908F03BFA2069C34E30609F
:2019100008B908F035FA3068DFF804A301688847326852F8041F50468847BE48BE49CAF846
:201930002000CAF824106069BC49086008B908F01FFAA069BA49086008B908F019FAE069F0
:20195000B849086008B908F013FADFF8DCB2B74C9BF8040008F012F90028206075D09BF8C6
:201970000500B34E08F00AF9002830606DD09BF80600DFF8C0A208F001F90028CAF80000B3
:2019900063D09BF8070008F0F9F8AB49002808605BD039789BF80000C91C484380B208F0F4
:2019B000EDF8A649002888604FD03878002862D0BBF80210484380B208F0E0F8A04A0028A6
:2019D000506042D0387808F0D9F89E49002808603BD03878400008F0D1F89B490028086015
:2019F00033D038781821484308F0C8F8974A106058B33878400108F0C1F89549086020B391
:201A10003878000108F0BAF892490860E8B13878000108F0B3F890490860B0B13878302188
:201A3000484308F0ABF88D4A106070B18C4839780078484308F0A2F88A4A106028B1387821
:201A500008F09CF88849086018B9BDE8F14F00F015B94FF0000B09E001F0C4F9002141807A
:201A700081600180022303710BF1010B39785FFA8BF08842F0D32268694F012010712168D4
:201A90000D732068457321688D732068C57321680D7400212068457400202268D172A02212
:201AB0002168487103212068C28001720720226850720021206881722821206801224182AD
:201AD000C2760020216848770022206880F85E200121226811770120216881F85D000122DF
:201AF0003068027131680D733068457331688D733068C57331680D7400213068457400204D
:201B10003268D172002231684871306882724FF420703168C88008818A7401213368D97493
:201B3000DAF800201573DAF800104D73DAF800209573DAF80010CD73DAF8002015740022C0
:201B5000DAF800104D740121DAF80030DA720023DAF800201171DAF800104B71DAF800104B
:201B7000C88008818B720520DAF800209374DAF800103E4AC8741068804739680546086828
:201B90008047396851F8042F00209047D9F80C101C4B0A881878364902430A802846354AA9
:201BB000136898470C21344808F066FB404608F067FB08F069FBBDE8F44F034800784FF48F
:201BD000005107F031BE00BF6E4F0020044F0020B63F0050604E0020084F00202C4E00208B
:201BF000E81200503C4E0020344E002048B701007B4F00200C4F00206D4F00206B4F002024
:201C1000724F00206C4F0020F04E0020F44E00207C4B00208D9B0100459E0100F84E0020DE
:201C3000FC4E0020784300206C3F0020104F0020144F0020184F00201C4F0020C04300204D
:201C5000684E0020004F00207C430020804E0020844E0020884E00208C4E0020904E002082
:201C7000313F00208043002094430020F0430020544F0020F4430020F84D002080B52B4870
:201C9000006808B108F0D6F82948006808B108F0D1F82848006808B108F0CCF826480068D7
:201CB00008B108F0C7F82548806808B108F0C2F82348006808B108F0BDF82248006808B120
:201CD00008F0B8F82048006808B108F0B3F81F48006808B108F0AEF81D48406808B108F03C
:201CF000A9F81C48006808B108F0A4F81A48006808B108F09FF81948006808B108F09AF8FC
:201D10001748006808B108F095F81648006808B108F090F8002008F02BF813480078BDE8FC
:201D300004404FF4804107F07FBD00BF104F0020144F0020184F00201C4F0020C043002022
:201D5000004F00207C430020804E0020844E0020684E0020884E00208C4E0020904E002081
:201D700080430020944300206E4F00202DE9F84F0D46E80788B00CD502F02CFF30B10021C5
:201D90008160DFF8E803006800B1804785F00100E9E128074FF01D0BDFF8D46375D5DFF8AB
:201DB000D4130A68907C01F013F8044604F5907094F8267107904FF00008DFF8B803016873
:201DD0008A7CC146FF2A04BF002007F0D1FF079A3946304608F05CFA07998246384608F051
:201DF0005BFA0BFB0AFBC0B1BAF1FF0F26D016F80B7006EB0B0047F00207411C079107F0A2
:201E10000100F21D84F8260102EB0B080799062204F5907007F044F810E00799384608F005
:201E30003FFA002818BFBAF1FF0F07D006F10D00584408F039FA08B947F00207CD48016880
:201E5000C87A022818BF032806D106F10D0008F02BFA08B906F10709002006903B46E18E9E
:201E7000090905910022A08E0490618E0798CDF8088049080391CDF8049000900020A179E3
:201E900008F016FA85F008006DE1E8060FD5002100220023069105920491039302910192A8
:201EB0000091022008F004FA85F010005BE1A8070FD50021002306910591049103930291E6
:201ED0000191009101223C2008F0F2F985F0020049E16807A84F40F18A80A848817800241E
:201EF0000794FF2904BF002007F042FF386890F8A00000F06DFF80463868C07A98F82691E9
:201F1000022818BF032808F5907A06D106F10D0008F0CAF908B9F01D07905146484608F066
:201F3000BBF990B33868807A002818BF012804D13146504608F0C0F904E0524649463046C4
:201F500008F0A6F9FF2836D00BFB00FBF01D00EB0B0406225146204606F0A2FF16F80B00D0
:201F7000396840F0020906EB0B0000F1010A887E00F0010088F826010622386800F1140111
:201F900008F5907006F08CFF15E05146484608F087F980B152464946304608F079F9FF28C2
:201FB00009D006F10D010BFB00F2881808F07CF908B949F0020908F12C004B460178069163
:201FD0004289120905920122B8F822100491C08807990191400803900294CDF800A000206A
:201FF00098F8061008F064F985F00400BBE028060FD5002100230691059104910393029181
:202010000191009101223B2008F052F985F08000A9E0E8044CD5F11D06F10D0008F050F9EE
:202030003868017A012918BF042932D1C17A02291EBF0329817E01292BD1817E00F11402AA
:20205000304608F025F9FF2812D00BFB00F0341804F10D0008F028F950B9E11D04F10D0075
:2020700008F02EF938680622E11D143006F018FF3868C07A022818BF03280AD106F10D0035
:2020900008F012F928B938680622F11D0C3006F007FF3B4842683B4800784FF4805107F00B
:2020B00015FD10B18E2003F01DFB85F480505AE0A80505D506F03AFE334901200860FEE762
:2020D000680504D503F013F885F480604BE0680405D5812003F006FB85F4804043E0A90444
:2020F00040D52A4C206810B1002007F041FE284E4FF0FF30206008F0E7F83168254C51F818
:20211000202F684690472449244B486A8A6A009001920293C86A0268086A0392ADF8100049
:202130000A6B1178002904BF5068002805D19068002804BFD068002806D0217050686060CD
:202150009168A160D068E06021463468144A266814486B46B0471449086000F027F885F4BD
:20217000005000E0002009B0BDE8F08F204F0020AC450020184F0020104F0020684E0020A6
:20219000784E00206E4F0020FC002043044F0020F04E002068450020343F0020C52E0100E8
:2021B0002C4D002000430020EC4E002070B54C4C4C4B2568186855F8183F00224FF0FF3123
:2021D00098474948494A416B494C8868494D41791170002608F07CF8474808F07DF808F064
:2021F0007FF84648026800215171A02301680722CB804A72032103681972002201684A77BB
:2022100000230268D3760021036883F85C10012201680A770123026882F85D30002100683A
:2022300080F85E1000223649086836494271086842710EE06068F1B24FF4C0725143421886
:202250005379012B04D1F0B200F0C2FD08F04CF8761C2978F0B28842ECD308F049F82A480B
:202270002A4A01782A4C117002F008F92948D02130220023017042708370C370037143712F
:202290008371C37108F038F82349244B00200870002223491A700120224B08701A70224958
:2022B000224B08701A701B202149224B0A701A804FF4A4722049214B08801A80FB202049A5
:2022D000204A088040F648001F491080FB230B80208008F015F81D490020087070BD00BF4E
:2022F000F04E0020EC4E002048B70100714F0020684E00207B4F0020CC470020104F0020C4
:20231000144F0020184F00206D4F00207A4F00204E4F00208C430020734F0020744F00206D
:20233000754F0020764F0020774F0020784F0020794F0020524F0020444F0020464F0020E6
:20235000484F00204A4F00204C4F00206F4F002038B50C46052C18BF132C05460AD0142C79
:2023700018BF152C06D01A2C1CBF292C3B2C01D0122032BD07F0C8FF010010D1E8B200F066
:2023900027FD90F87710022901D13A2032BD0021C18380F81041022107F05EFF002032BD00
:2023B00080B507F0B5FF1E2808BF002002BD704738B5194A137898420C462AD200F008FD92
:2023D0000546687918B3296848680169C868206005F13800698EA180C178A17105F16101B2
:2023F000B5F83221A4F8072005220078607204F10A0006F055FD28684168086900F11001A6
:20241000032204F10F0006F04BFD002032BD022032BD1E2032BD00BF7B4F002010F0070048
:2024300001D11E207047024908700020704700BF303F002010B5044600F0A6F8C8B9204659
:2024500000F02CF8A8B9204600F042F888B9204600F048F868B9204600F050F848B920466A
:2024700000F060F828B9204600F074F808B9012010BD002010BD704738B5074C236853F8F8
:20249000085F002200210020A8470546FFF7D2FF0028F3D0284632BDFC4E002010B50121C8
:2024B00000F00102012320FA03F404F00104944205D1491CCCB2072C03DB012010BD2246F5
:2024D00001215B1CDCB2202CEDDB002010BD70470349884201D1012070470020704700BFB7
:2024F000D6BE898E044A504004D0411E0840401E8041C00F704700BFD6BE898E01B49DF86F
:2025100000009DF801309DF80310984204BF9DF80230984203D1884208BF012000D0002089
:2025300001B0704710B5002100F00102012320FA03F404F00104944204D0491CCAB2192A4E
:2025500006DA22465B1CDCB2202CF0DB002010BD012010BD10B5820E002102F001021B2383
:2025700020FA03F404F00104944204D0491CCAB2022A06D022465B1CDCB2202CF0DB01200F
:2025900010BD002010BD704770B50021094A00E0491C1478CBB2A3420AD25368CDB24FF495
:2025B000C07465435C19666AB042F1D1012070BD002070BD684E002038B540F20242904290
:2025D0001FBF40F201418842002007F0D1FB00220548064C815E064B2568186855F8143F4E
:2025F00001B0BDE830401847424F0020F04E0020EC4E002070B521490B7803F00104C3F37D
:2026100040010C19C3F380010C191D498D7B00220600A5F1250118BF0128C9B201D01E200C
:2026300070BDE4B2012C0FD0040003D102290ED04A1C03E001280AD141B14A1ED4B2022C7F
:2026500005DDD0B2032815D1084670BD0222012494402342F5D1040005D1D4B2022C08BFDD
:202670000022F4D007E00128E8D1D4B2002CEDD0521EE3E770BD521CE0E700BF303F002042
:202690009C4C0020002007490A78012383401A4205D1401CC1B20329F5DB1E207047C0B2E5
:2026B000704700BF303F002080B507F035FEFFF7E9FF1E2802D0064925308873054A10783A
:2026D00020B10548417901F07F01417101BD00BF9C4C0020784E0020D04B00202DE9F843F8
:2026F000044607F01DFE00F57A68204600F070FB1A49074691F8340041F28839C0B10020E4
:202710000026174D2A78F1B2914218D2A1420DD0F0B200F05DFB0179012904BF4179012928
:2027300002BF02681178802909D00020761CE9E77C8E09FB04840B484461BDE8F183002802
:20275000F6D001687B8ECA68817909FB0329641A44F6206000FB0494EDE700BF343F0020E4
:202770007B4F0020AC4B00202DE9F843044604F168052868016800293FD10D2007F0D4FD24
:2027900000283AD0A0F10906002030603071707106F108070E20F08003213970042007F891
:2027B000010F04F1A00808224146781C06F078FB04F198090422494607F1090006F070FB01
:2027D0002868314607F0B4FD0821404607F02CFD0421484607F028FD00204142214422185A
:2027F00091F89F1082F8BF10401C0828F5DBA88AE88200212971012000E00020BDE8F2835A
:2028100070B50446092007F08FFD58B3A0F1090594F89400002814BF0E200A20E8800021E7
:2028300005F1080629602971697103203070092106F8011F072294F8FD000B497070B01CCA
:2028500006F02EFB94F8940028B1334609220321204607F071FDA06E294607F069FD0020C3
:20287000E083012070BD00BFEE4D0020F8B5044604F1380004F190060278194D4270218992
:20289000608907F05DFD07463078012801BF70882189491C884215D104F16101204607F0A5
:2028B00053FD3946204607F053FD2968A2798854A07929680A5C04F1610102F0C7FE0020C6
:2028D000307006E03946204607F042FD2968A27988542868A179425C206841688A73F1BD9B
:2028F000944300202DE9FE4F8A4C617811B9002007F03EFA07F014FD06464FF0000806F60F
:20291000C4160027844DDFF8149211E0384600F05FFA417951B12A68817902F8081008F14D
:2029300001015FFA81F8314607F016FD7F1CFFB299F800008742E9DB6178884505D000202D
:2029500007F016FA822007F00BFD6078012840F0C380002701E07F1CFFB299F8000087429D
:2029700080F2B480384600F033FA064670790028F1D02968B0790A7890421CBF002007F0E8
:20299000F7F9B079A0E0286810F8090000F020FA00684268DAF808109068814204BF3E46E5
:2029B00009F1010900F0A680A8E0286890F800B001224FF4C0710FE0636803F5AD76835C52
:2029D00001FB03F901FB0BFE36F809C036F80E60B44538BF9B46521CFBB29A42ECDB4FF683
:2029F000FF7007F0C1FC0646584600F0F1F94C490068D0F804A00868D94630F819206068BF
:202A10004FF4C07300F10E0103FB09F3C85AB2EBD00F52D2720840F6C410424300920027B2
:202A3000404A0190029217E0584600F0D1F901680A78802A03D1DAF81030009A5A61097837
:202A5000402908D1029980790A6802EB4011009800F5A060C8617F1C47452EDA2868C05D4E
:202A70008345F8D001464FF4C073594363685A1803F5AD73D289595A53088B4202D2521A92
:202A90009045E8DA00F0A4F901684A68019B9168DAF808207008A1F6C41103FB002007F05F
:202AB00067FC0028C0D01E48006830F81910491C20F81910286810F807B0194802680021EB
:202AD0005B4622F813105846BDE8FE8F002007F04FF9822007F044FC6178286807F04CFC58
:202AF0002868007800F074F900260068D0F804A04FF00109771CC145FFF645AFF6B2002EC6
:202B10001CBFF8B200287FF450AF286890F800B065E700BF684E0020004F00207B4F002084
:202B30007C430020844E002038B504460D4607F027FC012802BF142D1B21A4F87A1132BD93
:202B500038B50446182007F0EFFB002849D0A0F1090594F89400002814BF1D201920E8803C
:202B7000002105F10803296029716971032018700F2104F5A07003F8011F02885A7001884A
:202B9000090A99704188D9704288120A1A71818859718288120A9A71C188D9710021C08886
:202BB0005972000A18729972FF20187358739873D873187458749874D874187558759875B9
:202BD000D875D97294F8940020B118220321204607F0B2FBA06E294607F0AAFB0020E08358
:202BF000012032BD2DE9FC4706460C4615469A46C0B200F0EDF88146F0B200F0F3F80646AC
:202C1000494F3079DFF82481012802D0022843D082E0BAF1020F0AD10020708030800222D2
:202C30003271B06807F00EF90020B06037E0308871882A1891420BDA0020708030800222F5
:202C50003271B06807F0FEF80020B0608B2061E0B3682A462146184406F022F930882D1844
:202C70003580ADB27288954256D199F87410802917BF81297F2198F80000091A49B200911B
:202C90005346B168B878D2B207F07EFB002070803080022232713FE0BAF1020F3CD1042DAE
:202CB000B8BF8C2036DB20786178001D40EA01201F49708083B20A789A4238BF8A2029D36F
:202CD00081B2A94238BF8B2024D380B207F060FBB060F0B12A46214606F0E2F87288954280
:202CF00011D199F87410802917BF81297F2198F80000091A49B200910223B168B878D2B2D3
:202D100007F042FB08E030882D1835800121317102E0812002F0E6FC24B12046BDE8F6479D
:202D300007F090B8BDE8F387684E0020704F00206B4F002010B5044601F04CFF216800784A
:202D50000A78824204D12046BDE8104007F024BB10BDFEB50C46154640F67B41A21F8A426B
:202D70003CBFAE1F8E4229D2A54227D3B3F5FA7F24DA0899A1F10A0640F67747BE423FBF7B
:202D90005B1C6E005E43B6EBC10F17D290F8941041B1D0F834010A21B0FBF1F1C9006B43F9
:202DB00099420BD30C990B98019100900A9B099A2946204607F0F4FA012801D10120FEBD07
:202DD0000020FEBD014A10609180704784430020034A53684FF4C07148431844704700BFC5
:202DF000684E0020024A13680C21484318447047804300202DE9F8430A4F044638680D4691
:202E100001681646984688478146434632462946204607F0C9FA396851F8042F4846BDE889
:202E3000F24310477843002072B501F00305121D87B002268DF81C50ADF81620029301907B
:202E500007AB184D184A29680C9C8DF8021004258DF8035004940121D56A144C8DF80060DA
:202E700003938DF81460ADF8181028782168104E00280CBF20311C310A683068694690473E
:202E900070B12878216800280CBF20311C310A68306869469047401E8041C00F06F068FF6C
:202EB00008B070BD2C4F002048B70100F84E0020284F002002494FF6FF700880704700BF88
:202ED000CA00002110B51446600548BF00F06CFA600348BF00F078FA200248BF00F0B8FC7D
:202EF00014F0030F18BF00F085F8002C03D5BDE8104000F001B810BD80B5002006F038FF77
:202F1000822007F02DFABDE8014007F051BA704733488078FF2800D170472DE9F041FFF7E3
:202F300057FF054695F80F0101281EBF29684878002852D02B48447BC37A027B817AC07982
:202F500001EB000890440028984408BF002BA04403D1002A08BF002C01D0002603E00029CB
:202F700014BF01260226204F3868B0B3B888AA7990421CBF4FF6FD7188422ED11B48007A44
:202F900006F01EFF040028D02670A879184960800A68A879115C217195F974006071A4F819
:202FB0000680B5F81401208101F014FE050005D1FF204FF0FF31A072E16009E02878A072BE
:202FD00007F0AEF90146A86807F0F6F98008E06020463968BDE8F0410847BDE8F08100BF3D
:202FF000684E00205C4D0020844300206C3F002094430020FEB5DFF84803DFF848430578C5
:20301000DFF84403DFF84473DFF84423DFF844130D2D41F2064641F202434CD8DFE815F067
:203030008E010E000E000E000E0068009C00DF000C0145014501630163016A01206041F257
:203050000446DFF814034188B1421FBF478BB742478EB74203D11680DFF80003B6E00029F2
:20307000DFF8FC6211804FF4A0573AD0491E3DD0491E36D040F2FE3CB1EB0C011CD0091F2C
:2030900001291FD94FF47F7CB1EB0C011CD04FF4406CB1EB0C010FD0891E01290CD9091FD6
:2030B0000AD0491E01290DD940F2F932891A012917D9091F08D039E1022D14BF1780A94EEB
:2030D0002660EAE0A84EFBE7A8490A68157A012D03D1438043834386F2E74780478347863B
:2030F000EEE7002006F044FE832023E18F2021E19F4D698811800029206050D0491E67D066
:20311000491E4CD040F20240091A23D0491E46D040F2FB30091A17D04FF44060091A3ED09A
:20313000491E17D0491E012932D9091F12D0491E35D0491E0ED04FF47E70091A2FD0491E20
:2031500008D0C91E06D045E06E800120FFF752FA2530A873874839E087494B881380002B9B
:2031700020601CD05B1E33D05B1E18D040F202401B1A2AD05B1E12D040F2FB301B1A1DD079
:203190004FF440601B1A0AD05B1E1ED05B1E012B40F27D809B1E0ED09B1E16D05B1E76D0FD
:2031B0005B1E12D04FF47E701B1A70D05B1E0CD0DB1E0AD00EE0714921606EE0887B4E808E
:2031D00025280CBF2720401E88736D48206064E08F2060E0002006F0CBFD84205BE0B978D1
:2031F000FF2939D020601820664B41431868851C40F204466B5A13809B1B012B624A71D9D4
:203210004FF47F769B1B0FD04FF440669B1B032B84BF5B1F012B0BD99B1E012B62D940F2E5
:20323000FD369B1B33D103E0801C41F2014343522260FFF76DFE30E0B978FF2952D0206018
:203250001820504D41432868861C40F20447755A1580ED1B012D4D4A70D94FF47F77ED1B9B
:2032700011D04FF44067ED1B0FD0AD1E012D84BFED1E012D09D9AD1E012D5FD940F2FD379E
:20329000ED1B04D101E0801C4352226005E0002006F06EFD852007F063F803B0BDE8F040C8
:2032B0003B480078012106F0BFBA4888108040F2044290421CBF41F2084290423ED041F659
:2032D0000402904211D1334C3348344B00680025CDE900450222324C256855F8086FB04739
:2032F00030490880F7BD48881080002006F040FD85201FE04888108002280DD940F20442CA
:20331000801A1BD040F6FC72801A05D0083815D04FF47F72801AE8D1887B801CC2B2B52A67
:20333000A8BF6620887300204880F7BD002006F01FFD8420BDE8FE4007F012B8F7BD00BF0C
:203350006F4F0020204F0020F9500100684E0020504F0020CC4C0020204A00205955011090
:20337000615A0110B1540110755B0110104F00209C4C00203D4201006C4C00200151010048
:2033900041540100804E002031390110013A01006E4F002002000080EC4E0020D52E010025
:2033B000F04E0020424F002006488078FF2800D1704780B5FFF70CFDBDE80440002106F0C5
:2033D000FFBF00BF684E00202DE9F843DFF84804DFF8485401781D24082984B000F21282FE
:2033F000DFE811F016020900090009000900B200590116021602DFF82864DFF828843068FF
:20341000036803F10807062207F1080102A805F047FD0622B91C684605F042FD3878C109C9
:2034300000F00F02032AC0F38019DFF8FC7339D17079C0F38000814240F0DF813169062281
:2034500002A805F097FC002804D06946484606F023FF002800F0D1812946684606F02CFF31
:203470000146FF296FD03868807A4C43002818BF02280BD0012818BF032864D1681C2A5DF6
:203490000119404606F0A0FF10285CD0E81D07196B463A462919404606F09AFF06226946FF
:2034B0003846A8E100F00F00052862D17079C0F38000814247D13169062202A805F05AFCE8
:2034D000002840D06946484606F0E6FE00283AD02946684606F0F0FE0146FF2933D0386848
:2034F000807A4C43002818BF01280BD0022818BF032828D1681C2A5D0119404606F064FF07
:20351000102820D040F20240FFF756F8E81D07196B463A462919404606F05AFF0622694677
:20353000384605F0BDFCC148C14A41F20441418041834186BF480180BF49C048116001214C
:20355000007806F071F958E1BD4E3068016801F1080999F8000010F00F0F1CBF00F00F01B1
:20357000062908D000F00F02022A1CBF00F00F00012840F04D81062209F10201684605F03E
:203590008FFC99F80000AF4FC0F3801800F00F0001283DD1062209F1080102A805F080FC3A
:2035B00099F800004FEAD01902A9484606F074FED0B13868807C022818BF03285ED105F139
:2035D0000D0102A800F01AFE002857D039680120C8720622707940F00400707102A938685F
:2035F0000C3005F05DFC13E02878814510D10622691C02A805F0BEFB50B12878717960F314
:203610008201717106223868691C0C3005F048FC6946404606F040FE00282FD0706969465B
:20363000001F06F0D9FE002828D12946684606F043FE01463868807CFF2920D04C43002867
:2036500018BF02280CD0012818BF032816D1681C73692A5D0119181F06F0B6FE10280DD074
:203670002919E81D071974696B463A46201F06F0AFFE06226946384605F012FCC8E00028BB
:2036900018BF0228FAD17069012342466946001F06F0A6FEBCE06C4E3068016801F1080907
:2036B00099F8000010F00F0F1CBF00F00F00012824D1062209F10201684605F0F1FB99F80E
:2036D0000000DFF88881C0F3801700F00F00012848D1062209F1080102A805F0E1FB99F838
:2036F00000004FEAD01902A9484606F0D5FD20B3D8F80000C07A022818BF03287DD105F14A
:203710000D0006F0D1FD002877D105F10D0102A800F074FD002870D0D8F80000062202A93E
:203730000C3005F0BDFB707940F004007071062202A9E81D05F0B4FB14E02878814511D1DA
:203750000622691C02A805F015FB58B12878717960F3820171710622D8F80000691C0C30F9
:2037700005F09EFB6946384606F096FD002844D02946684606F0A0FDFF283ED0D8F80010F4
:203790004443887A2F1920BB887CFFF721FB804698F82601022818BF032800D068BB295D35
:2037B00000F00100814228D108F5907406222146781C05F0DFFA00B3012088F826010622B7
:2037D000717941F0080171712046694605F068FB0EE030692A5D791C001F06F0F5FD102884
:2037F0000BD030696B46FA1D3946001F06F0F0FD06226946F81D05F053FB31680A680020A2
:20381000107105E0002006F0B3FA862006F0A8FD05B0BDE8F08300BF6F4F0020AC450020B3
:20383000F44B0020CC470020104F0020204A0020204F0020504F0020595501106E4F0020F3
:20385000D04B0020144F0020AC4B0020184F00205F490A78042A00D870472DE9F84F521F47
:2038700005D0521E34D0521E012A05D9A5E0BDE8F24F012000F086BDDFF858A19AF8020053
:20389000FF2825D0FFF7A4FA83460BF16C07786806F0AAFD804698F80400032818D1D8F875
:2038B0000800047814F0030404D17868BDE8F24F06F09EBD4578032C00F102090BF20F1673
:2038D0000BD035B1387820B93D217170012030707BE041490A78012A77D09BF8941059B372
:2038F0002D1FEDB24B462A462146584606F084FD40B93D207070012131703848BDE8F24FF1
:2039100006F07EBD36480168884700904FF4C0709BF80620DAF8041042438818002180F850
:2039300039110BF59A7001688079490806F0ECF92C4900980A6890470020032CC8F8080028
:2039500016D0294841690878820707D5C0074CBF03200020401919F8000000E081203872C7
:2039700023469AF802002A464946FFF73BF91BE099F80000192803D21C4A115C8D4205D0F8
:20399000B0700721584606F03BFC0AE01048017808294946584602D1FDF772FC01E0FDF7E1
:2039B0004FFB484606F04EFA786806F021FD41465846BDE8F44F06F027BD002006F0D8F91F
:2039D000BDE8F24F862006F0CBBCBDE8F18F00BF6F4F0020684E0020794F0020AC4500203D
:2039F000F0430020F443002048B7010080B7010079488078FF2800D170472DE9F84FFFF71A
:203A1000E7F9054605F20F100178012908BF417800F08A8005F58E74E18911B1207B05F080
:203A300003FF6889288105F17401887B022803D105F174000021817305F58979DFF89CE19F
:203A50009EF80A009EF807309EF80C209EF80B109EF80D60B9F8027000EB030890448844BA
:203A7000B044B9F80460761CA9F80460C719B9F80060A9F802704644A9F800602468E4B1E6
:203A9000574F95F806B03F68182607F10E0A06FB0BFB0E371AF80BA034F81AB0C34424F816
:203AB0001AB095F806A006FB0AF6BE5D04EB4604B4F84A70C619A4F84A60002B08BF0029FE
:203AD00005D1002A04BF9EF80D1000290FD02989E88941180026A9812E74424841690A7834
:203AF000900726D59EF80E00802822D022E018B100200126287405E0B9F80600401C022618
:203B1000A9F80600A8892989814206D08842E4D2081A41F2AB029042DFDA287C08B10529DA
:203B300001D0082100E03E212846BDE8F44F06F06FBC812005F1740A8AF80000284600F0D0
:203B5000F9F8012846D00121284606F039FC284606F062FC00F04EF801283BD000F0ACFCA6
:203B7000214F3868B0B3B888AA7990421CBF4FF6FD7188422ED11D48007A06F021F9040043
:203B900028D02670A8791A4960800A68A879115C21719AF900206271A4F80680B9F8020036
:203BB000208101F017F8050005D1FF204FF0FF31A072E16009E02878A07206F0B1FB014614
:203BD000A86806F0F9FB8008E06020463968BDE8F44F0847BDE8F18F684E00205C4D002011
:203BF000804E002048B70100844300206C3F002094430020F8B54A4CA178FF2904BF0020B7
:203C100006F0B6F8A078FFF7E3F8044604F182062089401C608104F12E053178012902BF9E
:203C3000718880B288422FD104F18601204606F0F7FB6189E0894118A181F088A988328983
:203C50004718B0898A4204BF2989884202BF7389E9888B4207D0000900907389A1795208D6
:203C7000002006F0E1FBA888A4F85C013189A9807089E880B189298130792870204606F054
:203C9000D7FB0221317000E0AF882068C168C2680161182340F6C41101FB0727214AC76028
:203CB0008760A7791668C0685F433744B86006F10C07A07958430C363F5C07F0F00747F052
:203CD000020737541068A679871C5E430020B853AD88154F154E3F68A0796943356B07EB40
:203CF000401C2868124D091AA1F51671CCF81410A17907EB41102F78012F02D10121C172E5
:203D100002E0B16A0D78C572A179106822684B43C11851602046FEF7A9FD0020F2BD00BF17
:203D3000684E0020804E0020844E002048B70100734F00202DE9F8435FEA000906D1002041
:203D500006F016F802E0484606F066FA09F16605687D002800F08381697CDFF89C0400299E
:203D700009F1860709F20F1809F1EC0609F59E7443D0012958D002292FD003295ED0062976
:203D900000F09880072900F06081082900F0C080092900F0CD800A2900F09F800B2900F0D4
:203DB000A8800C2900F0D0800F2900F0EB80112900F01581122900F0DC80142900F01881B6
:203DD000152900F03981F02900F04B81FC2900F04581FE2900F04F81B1E7297C012908D114
:203DF000C07808B900F0C7B9484606F015FA16213CE1484606F020FBC9E1297C012940F01B
:203E10004B81C078002800F04E8178883978400078804900B88839704000B8800121388931
:203E30000001388129778EE7297C012940F04181C078002818BFB97285D13EE1297C01293C
:203E500040F04281807838B1A078012804D10021A170484606F0D4F9B07B012809D1002196
:203E7000316071600122BA730621484606F0F4F96CE7F07B012818D1484606F0CDF90020AE
:203E9000B87301212970484606F0DEF90120A87100217173717A99F8060006291ABF0022E6
:203EB0001A21002206F0CCF950E798F8000001283DD014E1287C012840F01881B07A0128FF
:203ED00011D1484606F0A8F9002030723073F072B073B072F073707338E7287C012840F05D
:203EF0001481F07A012840F00A810021B9730B21BBE7297C012940F011818078002800F013
:203F100011810321B1E70022222106F099F971E1287C012840F01681307C022809F1FD02A1
:203F300040F0198199F80610002006F089FA0AE7297C012940F01B81807800281FD0B9F81B
:203F50002200A9F81E00FEE6287C012840F01A81707E012840F01D81B07E0128F3D1308C38
:203F70000090F38B327F99F80610002006F06CFAE9E6297C012940F01C818078002800F0D4
:203F9000FA80E0E6287C012840F017816078012813D1207F0F281CBF002005F0E9FE00208A
:203FB0006070607F1A2808BF002117D0002100910023002206F038FAC5E6A078012807D14E
:203FD0000021A17023220F21484606F015F9BDE62078012840F0CF800021217045E7297C32
:203FF000012940F0EE80C078002800F0EE80AAE6287C012840F0EF8009F5AF76B07E810657
:2040100013D500F0DF000107B0760BD500F0F700B076308B0090B38AF28A718A99F8060028
:2040300006F026F9002030708DE6810740F1CD8000F0FD00B076F5E7297C012940F0CF80E5
:204050008078002800F0D0807DE6484606F0D0F80128F9D002E0002005F08AFE0020BDE80B
:20407000F283407A0028FAD098F80110484606F0CFF90120F3E7A87E0F28ECD1FC21484662
:2040900006F0EAF8608900902389E288A18899F8060006F0B9F8E1E7484606F0D9F9287488
:2040B000E88A2883DAE7B9F80A00E98B884209D0D4E7484606F0D0F9F1E7B9F80A00B98963
:2040D0008842CBD12821D1E7484606F0C9F928740021E88A2883B1730020F073BFE7288B49
:2040F000401E288380B2002822D0B7E7484606F0BBF928740021E88A2883B172AEE7288B40
:20411000401E288380B298B1A8E7484606F0B0F928740021E88A2883F1729FE7484606F008
:20413000ABF9BCE7288B401E288380B2002895D1317A99F8060001297FF4E5AE222106F001
:204150007BF857E0484606F09BF928740121E88A2883317482E7288B401E288380B200288E
:20417000F8D199F80610222006F06AF942E04846FEF746FB93E7288B401E288380B20028AE
:2041900038D06BE70120F076484606F07DF9287464E7288B401E288380B20028F8D1308CB2
:2041B0000090F38B327F99F80610222006F04CF920E0484606F06CF971E74846FEF7C0FC8C
:2041D0006DE7484606F068F969E7288B401E288380B278B142E74846FEF7A6FC5FE7152165
:2041F0004846FEF7A1FC5AE7288B401E288380B20028EFD1222139E75C4D002038B50C460D
:20421000D0F8031021F07F4100910568204606F04BF825F07F4538B96946204606F040F937
:20423000A84201D1012032BD002032BD38B50020FEF7E0F91B4D1C4CAB682530A87340F62F
:20425000C4102168CA8800FB0233AB6009898A4204D106F065F800F6C410A8600020688004
:20427000124A1348C17E01F0E00141F08101C17600210162107888B12168C87A022818BF6B
:2042900003280BD10B4D05F10D0006F00DF828B920680622E91D0C3004F002FEBDE83140D4
:2042B00000F00AB99C4C0020144F0020784E0020D04B0020AC4500202DE9F8430F462F4960
:2042D0000446086890461D4606F08EF8814699F8040003281CBF002005F04AFD99F80860A8
:2042F000B00900F00100387009F10A0799F80910881F2870C0B22028A4BF002005F038FD01
:20431000062017F8011B08F8011B401EF9D106F00F06062E14D8DFE806F00E040B131013BD
:204330000D0001212170BF1D2A78901F28700CE0032103E00220207007E00421217004E0C2
:20435000FF202070002005F013FD0898002104E017F8012B00F8012B491C2B78CAB29A4215
:20437000F6D33978802918BF81290FBF7F21044A1078091A09980170BDE8F183D04B0020BC
:20439000704F0020FEB5364C206806F02DF8002864D00079032861D1324D0DF10900A91DD8
:2043B000019000910DF10A032A4602A90DF10B00FFF782FF2C490878D0B19DF808002946A3
:2043D00005F06AFFA0B1294E3146284605F074FF0746FF2F0CD01D204743F1190622491CA5
:2043F000284604F05DFDF05D40F002008DF808001F480068C17C01291FD1807C002818BFC4
:20441000022810D11B4E9DF808202946304606F04BF81F2811D19DF808200023294630464F
:2044300005F0DEFF09E0012818BF032805D19DF808201148294606F037F89DF909009DF8D2
:204450000A300190A91D00912A469DF808109DF80B0006F02DF8206805F0CAFFF7BD00BF99
:20447000D04B002098430020784E0020AC450020144F0020A8480020CC47002070B50020F4
:20449000FF210B4A0B4B09E0182496684443264400257570401C95682955C0B21C78E41C46
:2044B000A042F1DB002091701080506070BD00BFC04300207B4F00202DE9F84FDFF86C54F0
:2044D000696884B0019121B905B0BDE8F04F05F0F3BF0978DFF858A4DFF858B4DFF8588431
:2044F000DFF8586401291CBF0229042946F2A81741F64C5905D0402918BF802900F0F880C3
:204510000AE200F0C7FB0028FAD00198007800F06DFA0090446814B9002005F029FCDFF879
:2045300020144878002800F0A480FEF7DBF9FEF74FFC02900168009801914F6800F008FA64
:2045500002286AD000990A78012A04D0022A25D0042A41D0E0E1DFF8EC3319680A7A1BF89E
:204570000230337018B905F0DBFE4844A0602069C17E01F0EF01C1762069C17E41F08001D1
:20459000C1762069C17E01F0F00141F00201C176B86821694044C861012035E1052131706A
:2045B00018B905F0BDFE4844A0602069C17E01F0EF01C1762069C17E41F08001C1762069C4
:2045D000C17E01F0F00141F00201C176B868216940440862022017E10621317018B905F0FF
:2045F0009FFE4844A060DFF860030168887CFEF775F82069C17E01F0EF01C1762069C17ED1
:2046100041F08001C1762069C17E01F0F00141F00201C176B8682169F3E001980178802954
:2046300013D10820C94930700A78012A03D0C4484178022903DB39690120C87213E0DAF89C
:2046500028003A690178D1720DE0C049072030700A783869012A02D10121C17203E0DAF8DB
:2046700028104A78C2720298B54A8179019891704DE10098002819D00199009A0078914279
:204690000ED1401E012806D9C01E05D1AE480168887CFEF723F8B8E0002005F069FBB4E0F9
:2046B000012804D0022815D0042819D034E1A54801680A7A1BF80200307005F031FE3918B0
:2046D000A06805F055FE18B905F02AFE4844A060012099E00520307002210098A97016E1D6
:2046F0000620994930700A68907CFDF7F7FF8AE093494878002800F0BA80FEF7F3F8FEF76D
:2047100067FB0290016801914C688D498878FEF75FFB039000F09CFA10F0070F7AD0A87828
:2047300000F064F900904768019900F011F9022870D000990A78012A04D0022A24D0042A77
:2047500040D064E07F4B19680A7A1BF80230337018B905F0E5FD4844B8603869C17E01F021
:20477000EF01C1763869C17E41F08001C1763869C17E01F0F00141F00201C176A068396962
:204790004044C86101203FE00521317018B905F0C7FD4844B8603869C17E01F0EF01C1762F
:2047B0003869C17E41F08001C1763869C17E01F0F00141F00201C176A0683969404408625B
:2047D000022021E00621317018B905F0A9FD4844B8605D480168887CFDF780FF3869C17E69
:2047F00001F0EF01C1763869C17E41F08001C1763869C17E01F0F00141F00201C176A06893
:204810003969404408620420A87000987FE0002005F0AEFA03980299884226D001984B49E5
:204830000278802A12D1082030700978012903D043484178022903DB21690120C87210E0F9
:20485000DAF8280022690178D1720AE0072030700978206901290EBF0122DAF828104A7866
:20487000C2720298364A8179917001984FE000F0EFF910F0070F55D0A87800F0B7F80446FB
:204890002078D4F804A0012804D0022817D0042826D047E02B490A68107A1BF80010317075
:2048B00005F03EFD3918DAF8080005F061FD20B905F036FD4844CAF80800012025E0052098
:2048D000307005F02DFD3918DAF8080005F050FD20B905F025FD4844CAF80800022014E040
:2048F0000620307005F01CFD3918DAF8080005F03FFD20B905F014FD4844CAF808001248E9
:204910000168887CFDF7EAFE0420A870204605B0BDE8F04F00F0C4B905B0BDE8F04F0020DD
:2049300005F026BA05B0BDE8F08F00BFC043002048B70100289A0110F0D8FFFF6F4F002060
:20495000684E0020104F0020184F0020734F0020F8B504004F68656840D005F0E1FC064626
:204970002078022806F6C41606D11D490868C288008982420AD1AE602078042806D1194965
:204990000868C2880089824208BFAE60B868314605F0EEFC012808D0B868314605F0E8FC44
:2049B000012818BF002005F0E3F9B868314605F003FD48F6B901884210D3B9680A484118F9
:2049D000A86805F0D5FC48B906F58846A86806F15C0105F0CDFC10B10120F2BD0220F2BDA3
:2049F000144F0020184F00204877FFFF2DE9F041FF2807461ED100F02BF910F0070F16D026
:204A1000042000F009F908B104200AE0012000F003F908B1012004E0022000F0FDF820B106
:204A30000220BDE8F04100F019B905F0A1F90020BDE8F08100F012F98046012FD8F80450D2
:204A5000334E04D0022F29D0042F3DD0EFE7022000F0E2F880B1022000F000F9074601201B
:204A70007C6800F0D9F828B1A0683118A86805F07FFC88B13846DBE7042000F0CDF828B1AC
:204A9000042000F0EBF80746012026E0012000F0C3F808B94FF000084046C9E7042000F07D
:204AB000BBF828B1042000F0D9F80746022014E0012000F0B1F828B1012000F0CFF807465A
:204AD00002200AE00220E2E7012000F0A5F888B1012000F0C3F8074604207C6800F09CF843
:204AF0000028C7D0A0683118A86805F041FC0028C0D1D1E7022000F08FF830B1022000F057
:204B1000ADF8074604207C68E8E70420BFE700BF589EFFFF70B51C4E1C4D317804462878B4
:204B3000C91C8842A4BF002005F022F90022A968182353431944487828B90B78FF2B0DD097
:204B5000686881420AD13178521CD2B2C91C8A42EDDB002005F00CF9002070BD0020486094
:204B700048610C700120487028786A78401C28702243C0B201281CBF802C402C6A7000D113
:204B90006960084670BD00BF7B4F0020C043002038B5040004BF002005F0EAF80B4D287852
:204BB00008B905F0E5F820680021216041702A78697800788143501E28706970C0B218B996
:204BD000034A68600021117031BD00BFC04300206F4F00200249087800B14868704700BFBE
:204BF000C043002030B50A4A92680021CBB218246343D55C854208D0064C2578491CCBB22E
:204C1000ED1CAB42F2DB002030BDD018407830BDC04300207B4F002030B500210A4A182385
:204C300094684B43E55C854202BFE3185B78012B08D0064B1C78491CC9B2E41CA142EEDBCE
:204C5000002030BD012030BDC04300207B4F002001484078704700BFC043002050B5014636
:204C70000A4883680022182050431C5C8C4202BF18184678012E07D005480478521CD2B244
:204C9000E41CA242EFDB002050BD00BFC04300207B4F002001480078704700BFC043002003
:204CB0007CB5040004BF002005F062F822494C60606900B180476068017B01F00F010229B5
:204CD0000CBF806805F02CFBA0602078802818BF402813D11948002180220170417081705B
:204CF000C170017141718171C171017241728172C17201734173C173016182731049114B77
:204D10000878002814BF104810480021CDE90001022261680E4C0F482568006855F8086F29
:204D3000B0470D4910F1020F088004D1BDE87640002005F01DB873BDC04300205C4D002046
:204D5000784E0020D52E01000204848002048080F04E0020EC4E0020424F00202DE9F84F83
:204D7000D74CA178FF2904BF002005F001F8A078FEF72EF8044604F1680504F190062968F3
:204D9000086810B10021E1830CE0A87B002804BFA97E002906D13078002801BF207F0128D4
:204DB000608CE0832189E08B4118491C6181204605F086FB01281EBFC2480178012904D17B
:204DD00021890020491CE08361814FF6FF77A87E01280DD1AA8B6189208905F075FB38B151
:204DF000218960894A1C93B298421BD0A88B0FE03078012816D172886189208905F064FBE5
:204E100080B1218960894A1C93B298420AD0708892B2904206D03818608180B205F090FA99
:204E30003F18E78304F5967999F8040020B120890021401CE183608104F12E07A87E01284F
:204E50003ED12289A88B521C92B2904238D1608104F18601204605F0E3FAA88C60840021FA
:204E70002177E183E08961894118A181A88B218905F066FA8046B988288C6A8C01FB080869
:204E9000E88C8A4204BF3989884202BFAB8CF9888B4207D000090090AB8CA17952080020F2
:204EB00005F0C2FAA87F3870698CB980A88CF8802046E98C398105F0BBFA0220A87601E028
:204ED000B7F80480B4F81EC022687F4ED2F80CE00CF1010000FB08F340F6C41000FB03F10B
:204EF0008E44C2F80CE03668DFF8E0E13678BEF80080774AB609032E11D1D67BF60748BF28
:204F10004FF000080BD408F101081FFA88F6012E12BF668AB9F8066006F2DC5600E0668AC1
:204F30005E434FF4C87AB6FBFAF6761C6661AEF80080A3614FF0180894F806A084F820C02A
:204F500008FB0AFADFF88CC1DCF800E023680EF1080656F80AB0C3F810B094F806A008FB12
:204F70000AFACDF800A0D3F80CB0D4F814A0ABEB0A0ADDF800B046F80BA094F806A008FB64
:204F90000AFA56F80A609E600EF10C06A37908FB03F30EF10C0EF65C06F0F00646F002068C
:204FB0000EF803604FF0000ADCF800E0A6790EF1020308FB06F623F806A0474BA6791B6864
:204FD000760103F1140AD4F814B05AF806A00AEB4B0A03F1140B4BF806A0AD7E022D0BD134
:204FF000A5796D0103F1140697F800B056F805A000FB0BAA46F805A0BD88D27BA779D607B3
:2050100037D508FB07F70EF10802D659A6F5A86A0EF1080646F807A0A77908FB07F7D25950
:205030002768511A3961BA6003F11402A1794901575807F5F667575003F11401A27952011E
:205050008958C9F800106843244A156BA779296803F11C067F01401AA0F51670F05120498F
:20507000A07903EB40100B78012B14D10121C17214E003F114027F01D1592A464243A1F5AD
:20509000E661A2F516729142DDD30821204605F0BFF9012011E0916A4A78C272A179DCF8EA
:2050B000000008FB01F281182268516007200D4908702046FDF7DAFB0020BDE8F28F00BFED
:2050D000684E0020784F0020084F0020CC4300205C4D0020804E0020844E002048B70100B4
:2050F000734F00206F4F0020002004F041BE70472DE9F84FC24DDFF80C832968DFF808A331
:20511000887CFDF765FE044628680021417104F12E062868BD4DFFF73BFD0120607104F59B
:20513000937998F80100401C88F8010018278020FFF7F0FC20606969C160B54801894900E1
:205150007180C079B1884000307049003089B180000130813146204605F062F90520A081A4
:20517000204605F065F9286805F03EF9062210F8081FC1F3801189F80010811C04F59070E7
:2051900003F08EFE2968A34D0A680020107141F60202A1792868794342520021A3797B43BC
:2051B0000344001D5980A2797A4381500121204605F0CEF8A27929687A430A449073A179E2
:2051D0002868794301440020C873A1792A6879431144887BF072DAF80020A079296802EB28
:2051F00040137843084414310361A0798A4A78430A50A07905F06CF9A179DAF800204901D1
:205210005050A1794B01D05820B90721204605F0FFF8F0E0DFF804B2DBF8000000EB0110D1
:2052300005F05AF9A179DBF80020DAF80000DFF8F0B102EB0113021D4901535004F1680154
:20525000A3795B01D2580A60A3795B01C2588A60DBF81410097894F806E0CA074CBF1022BE
:2052700000228B074CBF202300235FEA417C4CBF4FF0400C4FF0000C09074CBF8021002135
:205290001A434CEA020200EB4E100A4342F00F020272DAF80010A07901EB40120B215172F2
:2052B000DAF80000A27900EB421104208872DAF80020A17902EB41105A4A1378012B02D11D
:2052D0000121C17203E0DBF828100A78C272DAF80000A279636A00F10C0152018B50A179C5
:2052F00000EB4110A16A0174DAF80000A27900EB4211A06A000A4874DAF80010A07901EB00
:205310004012A06A000C90740821474A107804F08BFA2168A2792868CB687A4302449360F9
:20533000CA68CB680A618B6000F10C02A17979430C30535C03F0EF034354A0792968784301
:2053500001F10C020C31135C03F07F030B54A0792968784301F10C020C31135C03F0F003C6
:2053700043F002030B54A27928687A431044417B01F0F00141F001014173A079B688DAF81C
:2053900000204FEA401C40F6C4104643DBF83000016802F11403761AA6F5167643F80C60E1
:2053B000A07902EB4010C17C01F0F00141F00401C174A179286822684F43C1195160B9F8FB
:2053D0003A001B2804BFB9F83C001B2809D1B9F83E00B0F5A47F04BFB4F86601B0F5A47F1E
:2053F00003D01421204604F00BFF104908200870A27988F80220BDE8F14FFFF75DB800BFCC
:20541000184F0020684E0020844E0020AC4B0020844C0020804E00205C4D00208C4E002075
:2054300048B70100734F00206E4F00206F4F002038B51E4D1E4CA87BAB6827280CBF252068
:20545000401CA87340F6C4102168CA8800FB0233AB6009898A4204D104F062FF00F6C41053
:20547000A86000206880134A1348C17E01F0E00141F08101C17600210162107888B121688B
:20549000C87A022818BF03280BD10C4D05F10D0004F00AFF28B920680622E91D0C3003F093
:2054B000FFFCBDE83140FFF707B800BF6C4C0020184F0020784E0020AC4B0020AC450020EA
:2054D00000B585B00DF1020201A9684605F008F88DF8080008218DF8091002A80321C17030
:2054F0003422BDF804108DF80D108DF80A20090A8DF80E10BDF802109DF800208DF80F1056
:205510008DF80C20090A017202AA092141F2010004F0EAFF002005B000BD30B50D4685B05E
:205530000446102104F0E4FF1021284604F0E0FF0DF101022946204604F0DEFF8DF800006B
:2055500042F2170438B910210DF1010004F0D0FF6A46112101E06A460121204604F0C4FF56
:20557000002005B030BD30B585B00D4605218DF8001004228DF801200446102104F0B8FF3F
:205590001021284604F0B4FF0DF103022946204604F0B6FF8DF802004FF6054438B91021FD
:2055B0000DF1030004F0A4FF6A46132104E012208DF802006A460321204604F0A5FF0020D0
:2055D00005B030BD7CB506464FF6244501BB152004F0D4FA040011D024202070042161708C
:2055F0003046E11CFCF7E4FEA07022461521284604F08AFF204604F01DFC18E024200421E6
:2056100007228DF800008DF801108DF8022009E0FCF7CEFE8DF80200042124208DF8000072
:205630008DF801106A460321284604F06DFF002076BD80B5FCF7F2FE8DF800006A46012160
:205650004FF6254004F050FF002002BDF1B5234F0D4639781646A9B10C2003F0EFFB04008F
:205670003AD0912020703E2181226170A2700522BDF80000A080A6712946E01D03F010FC6C
:20569000387826E0142003F0D9FB040024D001202070FF2104F1080261706260042010704A
:2056B0003E226068427009216068817081216068C170022260686946001D03F0F1FB606823
:2056D0008671052260682946C01D03F0E9FB04480078214604F0B6FCF1BD00BFD043002040
:2056F000CE43002038B50446194841780A062DD5184D287870B1184A117859B9032003F0CD
:205710009DFB010022D09120087010224A708C70287817E00C2003F091FBB8B1012101709F
:20573000FF2200F108034270436004211970102341684B70012241688A700146426807489C
:20575000D4700078BDE8344004F07CBC31BD00BF1C4E0020D0430020624F0020CE430020CC
:2057700080B50849084A08700020084910700870074A08491070087004F0CAFE064900209B
:20579000087001BDCE430020CF430020D0430020D1430020D2430020624F00203EB50D46AD
:2057B000290411D5164A107803F0F6FF040009D02078032812BF0128E06804F043FB20467C
:2057D00003F04EFB85F4004568070AD50D4A0821D2E90034CDE90034684604F0CEFC85F037
:2057F000040528070AD5084A0821D2E90034CDE90034684604F0C1FC85F0080528463EBDE4
:20581000CE4300209CB70100A4B7010001490870704700BFD043002001490870704700BFF4
:20583000D143002001490870704700BFD243002001490860704700BFD443002038B50D4618
:205850000446288817280DDB04F066FE2988884208D3002000902B4602220349204604F07E
:205870005FFE32BD022032BD7D5C011080B50B46002100910422024904F052FE02BD00BF66
:20589000B95C011038B50D460446287902280CD1E86810B1072104F043F800902B4606220F
:2058B0000349204604F03CFE32BD022032BD00BF255D011080B50B461979102918BF022953
:2058D00006D1002100910822024904F029FE02BD022002BDA55D011080B50B4600210091B4
:2058F0000A22024904F01CFE02BD00BF4D5E011080B50B46002100910C22024904F010FE26
:2059100002BD00BFB15E011038B50D460446A88802280CDB286850B1012104F001F80090DE
:205930002B460E220349204604F0FAFD32BD022032BD00BF0D5F011080B50B46197910298C
:2059500018BF022906D1002100911022024904F0E7FD02BD022002BDA55D01107CB50D4620
:205970000446287A1226012809D1204604F0DCFD69880F38884201DA022076BD9226687AF1
:205990000128686808BF46F0400610B1032103F0C7FF00902B4632460249204604F0C0FD42
:2059B00076BD00BFA15E011038B50D460446A86810B1052103F0B4FF00902B46162202492A
:2059D000204604F0ADFD32BD755F011080B50B46002100911822024904F0A2FD02BD00BF11
:2059F000F55F011038B500250446009500231E22002104F095FD050005D10448026812B1E3
:205A10001E2120469047284632BD00BFD44300207CB5214D0446286808B1112076BD1F48AA
:205A3000017811F00A0F01D1122076BD042004F0A5F8286070B3022004F07AFD28680422E9
:205A5000214603F02DFA04F077FD28B10C2000F00FFC05460D200DE06078022805D11220DE
:205A700000F006FC0546132004E0102000F000FC0546112000F0FCFB06460948007804F03A
:205A90005FFD0346E07800903246A078294604F05BFD76BD132076BD984E0020584F0020B8
:205AB000594F002080B50B49096809B9122002BD0978814201D0032002BD07480078012181
:205AD00004F0C6F8302000F0CFF9BDE80240002000F036BA984E00205D4F002038B50D4DFC
:205AF00004462878012100F0A1F80B49087810F00A0F08D02C7005F1080004F029FDBDE8E3
:205B1000314000F0D1B80020287004F021FD002032BD00BF783F0020584F002010B501246B
:205B300042F20B02801A0BD0401E0FD18B68187830B9084A116851B9022004F00DFD06E01A
:205B50008868007800F008F8044600E00024204610BD00BF984E002038B50446124800689E
:205B700000B32100114D10D1417802290CBF0320022000F07DFB020003D02878012103F01C
:205B9000A5FF012000F0DCF90446200009D02878012104F05DF8204600F066F9022004F052
:205BB000DBFC012032BD00BF984E00205D4F0020002808BF00F002B800F010B8064908684D
:205BD000002800D1704780B5002000F04DF9BDE80240002000F0B4B9984E00202DE9F041C9
:205BF0000546E87800281CBF6C68002C1AD0242000F03EFB4FFA80F800270B4E0EE094F9D4
:205C10002810414508DB307818B1204600F0AAF810B1204600F0A2F929347F1CE978F8B2B5
:205C30008842ECD3BDE8F081783F00202DE9F0411C4D804668680C4688B3002617E03701B6
:205C50000830C05930B104F0F5F8696801F108020020D051686800F10C01C85930B104F04F
:205C7000E9F8696801F10C020020D051761C46456868E4DB24B104F0DDF8002068600EE001
:205C900068B14FEA0812002103F0FAF80020FF2103E06A680301401CD1544045F9DBBDE80A
:205CB000F08100BF783F002038B50F4D6868B0B92C78B4B1200103F061FF686078B12201BA
:205CD000002103F0DDF800202A78C1B2914208D26A6803061B0DFF21D154401CF4E7132037
:205CF00032BD002032BD00BF783F002030B50948406868B107490C78002200E0521CD3B240
:205D1000A34205D21B01C55CFF2DF7D1184430BD002030BD783F00202DE9F041104C05466B
:205D300060688846C8B1002701E07F1CFFB22078874212DA60683E01815DFF29F5D0801938
:205D50004378AB42F1D106224146801C03F012F80028EAD06068801900E00020BDE8F08128
:205D7000783F00207CB53F4E3168054600240020E1B12A78012A0BD02A7A05F109036946C7
:205D9000012004F0EDFB00B104782978042913D03268517803290FD0002908BF002C0BD0B3
:205DB00020B1012904D114F0030F05D1002076BD0229FBD1E007F9D56878A91CFFF7ACFFD2
:205DD0000400287826D0042814BFA068E06880B32A7A017891420CD105F10901401C02F07C
:205DF000C9FF012805D1232000F042FA002836D0DCE72878042806D0A068D0B104F01AF83B
:205E10000020A06015E0E06898B104F013F80020E0600EE00428C9D0FFF768FF0400C5D0C4
:205E300028782070062269786170A01CA91C03F037F8287A401C80B203F0A0FE60B1297832
:205E5000042914BFA060E060297A00F8011B05F109012A7A03F024F8287A0028A6D0012027
:205E700076BD00BF984E00202DE9F843DFF8C8800546D8F80000002600285BD02F4F7968B7
:205E9000387808B1002955D028464DB905E002018B5CFF2B18BF761C401C3A789042F6DBB4
:205EB0003006400D083080B202F0C8FF040005D1082002F0C3FF0446002613257CB3D020AF
:205ED000207065700121A170E670F0B200B304F10809C4F8049000253878854219DAF0B2E8
:205EF000B8B1796828010A5CFF2A0ED0084489F800200622417889F80110761E811C09F127
:205F1000020002F0CDFF09F108096D1CEDB2E3E76060D8F800201078214604F093F83878E6
:205F30000021FFF783FED8F8000003F083FF0020C8F80000BDE8F183984E0020783F00209E
:205F500010B50446232000F093F901002046BDE8104018BF0121C9B204F006BB70B5194D53
:205F70000646286860B3307A143080B202F066FF040025D0D020207000210D226170A270FF
:205F900006223078E07096F82810E172B11C70782071601D02F084FF307A207340B104F15D
:205FB0001400206106F10901227B02F079FF00E020612A6810782146BDE8704004F042B80F
:205FD00070BD00BF984E00202DE9F04F0546394801780A0789B058BF122068D504F0C8FA9F
:205FF00008B1102063E004F0A7FA33490A78904228BF15205BD2314C206808B1112056E092
:206010000A2003F0BBFD002820604ED0042004F08FFA20680A22294602F042FF2168487895
:2060300028B10E2000F024F980460F2004E00C2000F01EF980460D2000F01AF981461C2037
:2060500000F016F9ADF820001B2000F011F90746192000F00DF905461A2000F009F90646F8
:20607000162000F005F98246152000F001F983461348007804F064FABDF820202168079200
:206090000697059504960190CDF80CA0081DCDF808B00090CB788A784946404604F06CFA37
:2060B000040003D004F06CFA00E01324204609B0BDE8F08F584F0020694F0020A04E002098
:2060D000594F0020034801780A074CBF0248002004F05ABA584F0020883F002010B50124FE
:2060F0000246D21E084619D042F20A01521A0DD0521E08D0521F0DD0921F15D04DF6E671D3
:20611000521A0ED015E000F04FF813E0807800F02DF80FE0807800F049F80BE000F051F8BD
:2061300008E000F058F805E0807818B104F030FA00E00024204610BD20B50B4A12234FF688
:20615000FE751268A94205D162B11178814206D0032307E04FF6FF70814203D112B104F03D
:206170001BFA0346184620BDA04E0020010000D1704780B50B49096886B081B100220592C4
:20619000049203920292019200920B1DCA78097804F006FA07B05DF804EB04F0F1B907B0DC
:2061B00000BD00BFA04E002004F0EAB9010000D1704780B5002100910023002204F0F4F918
:2061D00001BD80B5418900910389C2888188C07804F0EAF901BD1FB504466079122825D18E
:2061F000E389A2896189208904F0E2F940B1252000F03EF8010018BF0121ADF80C1002E09D
:206210000122ADF80C202179608803AA04F0D4F9BDF80C0050B9002102910190E28900927E
:20623000A38962892189608804F0CAF91FBD000038B505462D2D0C4615DA4FF6FF729142B6
:2062500011D01D2805D13C20604380B204F0BCF904E02C2804BFE0B2FFF7EBF9034820F88E
:206270001540002032BD022032BD00BF903F00202D2803DA034931F8100070474FF6FF70C9
:20629000704700BF903F002010B50A4C60601022002102F0A3FD012803D16068102104F0DF
:2062B00097F9606803F09EFFBDE81040012004F093B900BF504C002078B50446200085B049
:2062D0000D46164601D0022D01DB02201AE030464FF6FD72904205D0694604F081F908B160
:2062F00034200FE0012D06D14FF6FF710020FCF769FD002403E031460348FCF763FD0348B1
:206310000460002006B070BDB1640100D843002070B505460026A88804F066F90446A88822
:2063300004F066F9042801BF1448A9880288914204BF4FF6FF7303801CB12678A88804F098
:206350005BF90F4C207840B1864206D10D49097804F056F948B100202070300005D0AB796A
:20637000AA88A878314604F04FF90749086818B1BDE8704004F04CB970BD00BF9C45002044
:206390005B4F00205C4F0020A44E00202DE9F84F804691460A9CDDF82CB00C9E0D9D9A46C1
:2063B000484604F021F907002FD0B8F1000F2CD138795FEA0A714CBF40F0200000F0DF00D7
:2063D000002C08BFBBF1000F07D1002E08BF002D03D100F0FB00387117E040F004003871C9
:2063F0003DB12869B8621022294607F1180002F057FD54B1F86A08B103F01CFD26480268F9
:20641000906D1C2103F0C2FBF862244F3868002840D084B1D0F8A40028B91C2003F0AEFB83
:206430003968C1F8A4003868D0F8A40018B11C22214602F035FD8EB13968D1F8A80028B97E
:20645000172003F09BFB3968C1F8A8003868D0F8A80018B11722314602F022FD8DB13968F1
:20647000D1F8AC0028B9142003F088FB3968C1F8AC003868D0F8AC0018B11422294602F092
:206490000FFD5B4652464946404601B0BDE8F04F04F0C2B8BDE8F18F304F0020A44E0020B9
:2064B00003490968002918BF084703F0C3BC00BFD84300202DE9FF41284C2068002849D0C1
:2064D0008578274F04F038F880B1032D05D00A20FFF7CEFE06460B2016E02820FFF7C8FE82
:2064F00006462920FFF7C4FE804620E004F098F828B10620FFF7BCFE0646072004E00820C7
:20651000FFF7B6FE06460920FFF7B2FE8046012D12BF042D3878032809D12068C17802290F
:2065300008BF002102D0032914D10121C170387804F006F82168CA7A03920C1D8B7A029366
:2065500001940346C97800912A464146304604F06BF800E0012004B0BDE8F0819C4E0020E2
:20657000594F00200C281CBF11281A2801D104F05FB8704770B506460C46154604F034F8E7
:2065900028B94FF6FE7086421AD0142070BDC16AA1B10279D00601D40F2070BD094800787C
:2065B00008B101251024930700D43DB9897EA14201D20C2070BD18B1900601D4052070BDB8
:2065D000002070BD6A4F00202DE9F0411C4EDFF8748030782825684303F0D0FAC8F80000EC
:2065F00008B913202AE00024FF27307884421BDAD8F8001005FB04F28B18002C14BF4FF623
:20661000FF704FF6FE7018800021002098705F721F72987283F82410182203F10C0002F020
:206630002FFC641CE4B2E0E7074804F005F80748FFF7FEF8064804F003F80020BDE8F08154
:206650005E4F0020DC430020756B0100F57201004B73010001490870704700BF323F00204D
:20667000FEB50D460446164601A900F0D2FD07000CD129462046FFF7E1F8070006D10198F6
:20669000034B00960322294600F0A6FD3846FEBDA15C011010B54FF6FF7386B00A46ADF8F1
:2066B0000230022401218DF80440ADF8001000238DF8053028248DF80640694600F0BAF98C
:2066D00006B010BD2DE9F0411746022F18BF102F88B080460C461E4622D10CB301A900F03C
:2066F00098FD0546E8B901204FF6FF71ADF80800ADF80A108DF80C703A4621460DF10D00D4
:2067100002F0CEFB02A9404600F0F2F8054640B90198064B0096072202A900F05DFD00E0E1
:206730000225284608B0BDE8F08100BF915D011038B586B00324ADF80220ADF8001002223E
:206750008DF8042028258DF805408DF806500022694600F0FDF807B030BD1346012200F0C8
:20677000F7B880B5ADF80010ADF8022069461A4600F0A4F802BD00F029B91346002200F012
:20679000E7B800F03DB90000FEB50D460446164601A900F03EFD07000CD129462046FFF734
:2067B000B3F8070006D10198034B00960F22002100F012FD3846FEBD315F011038B50D4658
:2067D0000446694600F025FD17280BD0287A002804BF687A012804D129462046FFF7BEF896
:2067F00032BD022032BD38B50D460446694600F010FD17280BD0287A012804BF687A0128A0
:2068100004D129462046FFF7A9F832BD022032BD00F02AB900F04CB92DE9F8410C0085B0CF
:20683000804617461D463AD0380038D0404603F07BFEC0B200214FF00C0CCEB2231D0CFBD5
:2068500006F6421F9B5B9A4227DB491CCAB2BA42F3D301A9404600F0DCFC060020D1A0685D
:206870000090A38862882188404600F057F9060016D100220C980C4B8DF811200090012281
:206890008DF808208DF8107003948DF812501722019802A900F0A0FC02E01B2001E0022689
:2068B000304606B0BDE8F081C15F011000F08EB800F0A6B800F0D8B800F0FAB8FEB50D46A9
:2068D0000446164601A900F0A4FC07000CD129462046FEF7CBFF070006D10198034B0096F5
:2068F0000522294600F078FC3846FEBDE15C011038B50D4684B02A7904460023062103F069
:20691000A3FE0390F8B12888ADF800000222698803988DF80420ADF80210282200218DF835
:2069300006208DF80510691D2A79ADF8082002F0B7FA69462046FEF7A5FF040004D00398CD
:2069500003F080FA00E01324204605B030BD00002DE9F04188B00E46044690461D4601A99B
:2069700000F057FC074658BB5FEA080013D03088ADF8080002227188ADF80A108DF80C203E
:2069900003218DF80D1028228DF80E2002A92046FEF790FF03E031462046FEF78BFF070049
:2069B0000ED1162231460DF10A0002F079FA0198054B8DF808800095092202A900F00CFC73
:2069D000384608B0BDE8F0812D5E0110FEB50D460446164601A900F01CFC07000CD129460E
:2069F0002046FEF779FF070006D10198034B00960B22002100F0F0FB3846FEBD715E011017
:206A1000FEB50D460446164601A900F002FC07000CD129462046FEF76BFF070006D1019893
:206A3000034B00960D22294600F0D6FB3846FEBDFD5E0110FEB50D460446164601A900F018
:206A5000E8FB07000CD129462046FEF775FF070006D10198034B00961122294600F0BCFB7D
:206A70003846FEBD495F0110FEB50D460446287A002804BF687A0028164613D101A92046DD
:206A900000F0C7FB07000ED129462046FEF766FF070008D10198054B00961322002100F07A
:206AB0009BFB00E002273846FEBD00BFA55E0110F0B587B00D460746144601A900F0A9FB07
:206AD000060026D1384603F02FFDAB88401F834203DB384603F028FD431FA86800906A884D
:206AF00029889BB2384600F019F8060011D100208DF808000C22294603A802F0D1F9688880
:206B1000054BADF8180000941722019802A900F063FB304607B0F0BDC15F0110FEB50F46E6
:206B300016461D46044600232A46162103F08CFD029098B10899ADF80070ADF80260ADF8B9
:206B500004502A4602F0ACF969462046FEF72CFF040004D0029803F075F900E01324204645
:206B7000FEBD00002DE9F0430D4687B02978002479B9697801290CD0A9781B2918BF1D2917
:206B9000804617463ED1DFF8309199F80000FF2801D106208DE01D2912D1404600F04EFB16
:206BB00004001CBFA27A002A0AD010062ED4A978404603F04DFDA07A40F08000A07225E0E9
:206BD00001A80090AB88AA686978287803F044FD002806466CD101A800900022AB7899F8B2
:206BF0000000414603F03CFD0028064660D1029808B100213970A8781D2859D1002C57D02E
:206C1000A07255E000F01AFB040001D1002050E0A87801281CD1A988A86801AA03F024FDBC
:206C3000060045D1A078052818BF072808D009281CBF0D28112803D0172815D1206998B1C1
:206C5000AA7801AB2146404600F03AF838702FE0A178884206D1636823B1A988A86801AA4B
:206C70009847DDE7042623E01449607A0A7890420FD001AB00930022AB78414603F0F0FCE0
:206C9000064630B9A97801A803F0F2FC08B100203870A178032908D1A189BDF804008142BF
:206CB00088BF0146404600F00BFC204600F0DEFA304607B0BDE8F083323F00205F4F0020E7
:206CD0002DE9F8430E468046B078052817461D464FF001090AD007280ED0092812D00D28AC
:206CF00016D011281AD017281FD034E02A463946304600F057F816E02A463946304600F04A
:206D10008AF810E02A463946304600F0B3F80AE02A463946304600F067F904E02A4639467F
:206D3000304600F08BF904460DE0307B01282A463946304602D100F0FDF901E000F0B4F9B2
:206D50000446012C2BD1002C08BF012F04D128790A2806D115E00124092F04BF2888002821
:206D70000ED000953B46707A0022414603F078FC30B93946284603F07BFC08B14FF00009D4
:206D900044B9002000901A22B378707A414603F067FC01E0162C02D0304600F067FA4846BE
:206DB000BDE8F28310B5052904462AD194F82400401C84F824009078012805D1506811886D
:206DD00000EB8102111F06E051681288122042438818A0F1120108784978E28900EB012019
:206DF00081B2914215D2401CA08104F10C012088FEF73CFD207A47F2305102F085FF162041
:206E100010BD10790A2802D194F8240008B9012010BD002010BD10B5072904461FD194F800
:206E30002400E389401C84F824001188506800EB8102101F0178407801EB00218AB29A4272
:206E500015D2491CA18104F10C012088FFF750FD207A47F2305102F057FF162010BD10799F
:206E70000A2802D194F8240008B9012010BD002010BD00002DE9F843092986B00546164651
:206E90003ED195F8242031887088521C491E85F824204143706889B2475C08444178287BD9
:206EB000012807EB012765D131887088002448431FFA80F93480A046C8455BDA7088D6F8B5
:206ED00004C0A97C431FC4449BB20CF1050205F1130003F0D1FB70B1A04506D07068728888
:206EF00000EB0801001901F0DBFF708831880419491CA4B23180708840445FFA80F8DBE761
:206F100031790A2903D195F82400002860D1AB7C314805F11302022103F0AEFB002849D1FA
:206F3000AB7C2E4805F11302022103F0A5FB002840D1AB7C2A4805F11302022103F09CFB59
:206F5000002837D1AB7C274805F11302022103F093FB78BB3079022818BF052804D008289E
:206F70001CBF0F280C2825D195F82400401C85F8240077884FF6FF71B8B2884228D02A8A83
:206F9000904225D2287B7F1C0128EF8114D1ADF800700222298AADF802108DF804200321EC
:206FB00028228DF805108DF8062069462888FEF781FC06E001200CE0288805F10E01FEF7C4
:206FD00079FC287A47F2305102F09EFE162000E0002007B0BDE8F083FCB60100FEB60100D5
:206FF00000B7010002B7010038B50D29044615461AD194F82410491C84F82410208803F0EC
:2070100093FA2988401E814216DBE0890918E18104F10C012088FEF76BFC207A47F23051CA
:2070300002F072FE162032BD2879072802D194F8240008B9012032BD002032BD10B5112987
:20705000044616D194F82430118850885B1C491E84F824304143506889B201444FF6FF737D
:207070008878C97800EB012082B29A420AD1002010BD10790A2803D194F824000028F6D1AD
:20709000012010BD401CA08180B2E2898242EED3208804F10C01FEF74FFC207A47F2305115
:2070B00002F032FE162010BDFEB5172904460D4647F2305626D1208803F036FAA28BA38A30
:2070D000411F8A18A283618AA28B511A89B2994214DAA0F1050C5F1ABC45B4BF431F5B1A8C
:2070F000A069084400909BB2218A2088FFF716FD40B9207A314602F007FE16E001218DF854
:20711000041002E000228DF8042001A92088FEF75DFC012D01D10120FEBD207A314602F01F
:20713000F3FD19200249A07061601620FEBD00BF11600110FEB5044617290D46104647F2A9
:20715000305632D1627D21690C277A438B1801881A888A4202BF5A8841888A4202BF8288A0
:207170009988914221D18168986801F003FEE0B1607D227D401CC1B29142607511D221694D
:20719000C0B24743C819826800928388428801882088FFF7C3FC40B9207A314602F0B4FD1E
:2071B00016E0A17D8DF8041002E000228DF8042001A92088FEF70AFC012D01D10120FEBD3C
:2071D000207A314602F0A0FD19200249A07061601620FEBD116001102DE9F041069DFF2D21
:2071F00006460C461746984611D006F108021E2100F070F87572B770C6F804803CB1214689
:2072100006F10C00BDE8F041182201F049BEBDE8F08110B50C4600F011F860B104B12060E7
:20723000007AFE2801D1172010BDFF2801D1002010BD162010BD022010BD000070B5094A78
:2072500012680021282600E0491C074C2578CBB2AB4205D27343D45A8442F5D1D01870BD3A
:20727000002070BDDC4300205E4F002038B5044604F1080003F004FAA078172818BF192811
:207290001AD1207B012813D12069A8B1002508E00C2108306943405808B102F0D3FD6D1CAF
:2072B000EDB2217D20698D42F2DB02F0C3FD03E0A06908B102F0C6FD0020A07084F8240080
:2072D000FF2104F10C0061721822BDE83840002101F0D6BD13460A460146014803F0D4B9F5
:2072F0000F73010010B50C46FFF7A8FF30B1817A4A1C944204BF01F08001817210BD1CB569
:2073100004001CBF207AFF2816D000210091A3782188607A172203F0A3F9A078182806D190
:2073300000218DF8001069462088FEF74FFBFE2020722046FFF79AFF13BD7CB54FF6FE7296
:207350009042054633D00B004FF6FF7608D1FFF775FF60BB3046FFF771FF40B3058073BD56
:20737000012905D1FFF76AFF040020D026800AE002291CD1012103F08BF9C0B92846FFF78C
:207390005DFF040013D0207AFF280ED0FE2807D0002000901422A378607A294603F060F968
:2073B0002046FFF763FFFF2020720021A17273BD2DE9FE430D884A88AA4201D32A0001D170
:2073D000012075E000230024ADF8043002944FF6FF7881460F4627E00294287802283AD127
:2073F000BDF8006001218DF80610B6082878022860D1688904F8010B02226989090A04F8D4
:20741000011B2046696801F04BFDA41CBDF80400401CADF80400B1B2BDF80400884249D251
:207430006D89454546D06D1C00200090002379880022A8B203F030F905003BD0BDF80400E8
:2074500008BB6B4642460521484603F0FDF80400C2D111202CE002208DF806001221BDF81B
:20747000000090FBF1F62A78102A23D1688904F8010B6989090A04F8011B2046696801F07C
:207490000FFD1034C2E79DF806000128EBD1ADE701A9484603F004F948B101AB05221621A4
:2074B000484603F001F910B1029802F0CBFC0020BDE8FE83BDF804000028E9D10A20F7E744
:2074D0007CB504460D4603F0F3F806000AD101A821460090ADF804507F23034C20780022CB
:2074F00003F0BEF8304676BDA645002070B504460D4616460C2001F0A1FC78B190210170FC
:20751000FF220223427003714480C580866001460348007802F096FD002070BD132070BDC4
:20753000654F0020F8B50C46154600261C4F1D4940B1012815D0042818D006281ED00728B8
:2075500021D02AE0162C26DA1622002107F10C0001F096FC2246294607F10C0001F0A0FC96
:207570001CE0022C17D12888788117E0082C12D138462946082201F0E1FA0FE0012C0AD158
:20759000CA69283103E0012C05D1CA6B4831287800F03EF802E0182600E002263046F2BDA8
:2075B000E83F00201040002010B50246084600240D4932B1012A09D0042A0AD0092A0CD031
:2075D0000EE015220C3101F06BFC0AE04989018007E0082201F0B2FA03E00A7A027000E03D
:2075F0000224204610BD00BFE83F002080B50021C00706D5044B05481022092100F078F9CB
:207610000146084602BD00BFACB701001040002010B50B7884074CBF43F0020303F0FD036A
:2076300004064CBF43F0800303F07F0304074CBF43F0080303F0F70384064CBF43F02003CE
:2076500003F0DF0310F0AA0F0B7003D0107840F00C0003E018B9107800F0F300107010BD0E
:207670002DE9F8430D4600272878022814461E4669D1696808784978DDF8208000EB0120DA
:2076900080B25FEA08021CBFB0F5285F0B205DD14FF42851401A0AD0401E23D0401E4CD03A
:2076B000401E27D0401E2DD0A23846D04BE0DDF82490E86802F016FD80B2A0EB08024A45BB
:2076D000BCBFA0EB08001FFA80F909EB0800162806DAA6F800904A46E86800EB08010DE0F1
:2076F0000D2732E0E8680088022131802070000A60702AE0062030800622E968204601F06E
:20771000CFFB22E0E868B0B1082131800288227003881B0A63704188A1704288120AE27051
:20773000818821718288120A6271C188A171C088000AE07109E0308007E001213180E86804
:207750000278227001E0378001273846BDE8F2832DE9F0470F468146387800240228904678
:207770001D4671D17868089E01784078DFF8E0A001EB002189B24FF42852891A08D0491E5F
:207790002BD0491E50D0491E3BD0A3395AD05BE0F86802F0A7FC80B2B04204D3A9191629B3
:2077B00003DB0D2451E007244FE0FB682A464146981901F075FBAD19F868ADB2C5F1160260
:2077D0000021401901F05CFBDAF8000000281CBF0268002A39D0002123E08EBB022DE0D118
:2077F00098F8000098F80110FA6800EB01201080DAF8000000281CBF0268002A25D00121CA
:207810000FE0EEB9062DCCD1F8680622414601F047FBDAF8000000281CBF0268002A14D063
:2078300003214846904710E056B9012DB9D198F80000002813BF0128F9680870802404E0E4
:207850000B2402E0032400E001242046BDE8F087E043002070B5124C124920700878C00068
:2078700002F08CF910490860C8B100220D49002507E04FF6FF7320F8323000EBC206521C71
:2078900075600B789A42F4DB052002F015FF207802F016FFBDE87040044802F0D1BE70BDBC
:2078B000604F0020694F0020D84E0020B97E010038B50D46290417D50C4A107801F06CFF00
:2078D00004000ED02078B02808D1204602F0FCFE20B1217904F1080002F0FAFE204601F072
:2078F000BFFA85F4004032BD002032BD604F00203EB504001D460FD0ADF800108DF80220A4
:207910000194684602F0E8FE010006D12DB16089294602F0E5FE3EBD02203EBD3EB5054603
