:020000040001F9
:20E000000044002009ED010097E8010083E20100B3E60100B3E60100B3E6010000000000F1
:20E02000000000000000000000000000B3E60100B3E6010000000000B3E60100B3E6010078
:20E04000B3E60100B3E60100B3E60100B3E60100B3E60100B3E60100B3E60100B3E60100F0
:20E06000B3E60100B3E60100B3E60100B3E60100B3E60100B3E60100B3E60100B3E60100D0
:20E08000B3E60100B3E60100B3E60100B3E60100B3E60100B3E60100B3E60100B3E60100B0
:20E0A000B3E60100B3E60100B3E60100B3E60100B3E60100B3E60100B3E60100B3E6010090
:08E0C000B3E60100B3E6010024
:20E0C8002DE9F04FADF17C0D00F06CF9002800F0D180002000F0B4FC5FEA000B00F1C880B1
:20E0E8004FEA0B30342102AA1E9000F037FC9DF81800FE2840F0B0809DF81410012940F08C
:20E10800AB809DF81510012940F0A6809DF81910FC2900F0A180FE2840F09E80FC210D9868
:20E128008DF874100FAA04462C2100F017FC159E4FF0FF382C2560190C211AAA00F00EFC9D
:20E1480058B19DF86800012805D01B9828B12D18AE42F0D801E0DDF87080B8F1FF3F7FD04E
:20E1680015984546A146411915F0030F4FEA1534A1F1010100F103004FEA11374FEA9006AD
:20E188002CD1A7422AD31E2F28D8A74214BF4FF4806A1FFA86FAA0B2000300F057FDE8B98B
:20E1A80003E009F104092D1D761E5346581E1FFA80FA23B9641CA742E7D200270FE048464B
:20E1C80004216A4600F0CAFB40B1009829460422019001A800F02CFD0028E2D0FF271E9886
:20E1E8001DA9103000F0E8FA002F35D14FEA1830C0B200F043F8FE21119F8DF8741087424B
:20E208001AD11E981DA9113000F0D6FA9DF84E10032906D108F111001DA900F0F9FC9DF84E
:20E228004E1031F0010018BF03290DD100F086FA169800F084FD07E0FC208DF874001DA924
:20E2480008F1110000F0B8FAFC208DF874001DA908F1100000F0B0FA0BF101004FFA80FBCB
:20E268005FFA8BF000F0ECFB5FEA000B7FF538AF00F064FA1FB0BDE8F08FFEE72DE9FE4FB3
:20E288000290000300F0FEFC4548C26C416A891AB1F1FF3F09D08046D8F84C10D8F824004F
:20E2A800401A401CB0F5003F03D94FF0FF30BDE8FE8FD8F84C10D8F82400029CD8F84C70F6
:20E2C800D8F82460D8F84C30D8F82420401A4FF0FF3504EB10305FFA80FBF01B6FF31F30F6
:20E2E800401C1FFA80FAD01A04EB1030C0B2A0424FDBABEB0400401C0190A34508D15FFAEF
:20E308009AF61AF0FF0F1CBF761CF6B20EB93AE010262003B14600270090B81BB0F1FF3F9E
:20E3280004D1A34502D11AF0FF0001D14FF480700299A1420ABF002F00220C22904217DDAB
:20E3480008EB0201801A491E11F8012F4FEA152C554005F0FF0508226B0832BF6D080F4B20
:20E3680083EA5505521EF7D1401E85EA0C05EBD1009800EB072000F5807000F083FC7F1C63
:20E38800B9F10109C9D10198641CE4B2401E0190B3D185F0FF30BDE8FE8FC0462083B8EDE1
:20E3A80000000020FEB54FF0805000F5DC77D0F8B8014169062088473868416B06208847CA
:20E3C8000128F9D13868C1694FF4A06088470124374E384D346028688008FCD33868C169F2
:20E3E8004FF480708847346028688008FCD34FF0804303F1140108680327002520F00F00AF
:20E4080008600C261F6229465D60891CB6FBF1F0401EFF28F9D80002274A196140F00700FC
:20E4280009211860082000F063FC0A214FF4C042092000F05DFC31464FF4C0420A2000F003
:20E4480057FC586840F002005860684600F028FC0028FAD1142029464FF4C04200F048FCE6
:20E468001648046000F054FCAB208DF8040000F057FC01A8214600F067FB2F4600B92746FE
:20E4880000F046FC3C1C09D0C8210846411E002889B2FAD100F08AFA00B12C4614B900F0F9
:20E4A8004DF902E000F0F4F904462046FEBDC046282008602820084000600020501A44422E
:20E4C800294838B5001D0468B4F1FF3F08BF002400F024FB032832D12448254B184A0025DF
:20E4E80001211038056003F15C00164B016018681160806C80471448006820B11348006837
:20E50800204600F0D3F8124812490560124C0A686FF35B4244EA0200086010490868C0F3D5
:20E528000130012806D10A680D48104040F400320A6008600B4908680028FCD138BDFEE7C0
:20E5480008220443F001001080012843000120438C210840482003400000390104000940CA
:20E56800FFFFFCFC0C006842181300509404604200600C40002A4AD05FEA000C8B071CD16E
:20E58800830722D1102A08D370B4103A78C978C0103AFBD270BC103238D0042A2CD3082A0E
:20E5A80005D30C2A24BF08C908C008C908C008C908C092072AD0920F22E00B780370491C06
:20E5C800401C521E22D08B07F7D1C30714D18307D8D0121F12D308C903801B0C4380001DC9
:20E5E800121FF8D20AE008C903701B0A43701B0A83701B0AC370001D121FF4D2121D05D08A
:20E608000B780370491C401C521EF9D1604670472DE9F04100254FF0FE08FC26ADF1300DF6
:20E628002C0369460822204600F060FA684600F0B7FA012831D1204669462C2200F056FAFD
:20E648009DF81200012818BF032826D19DF80C00012822D19DF80D0001281ED19DF81100CC
:20E66800FC281AD0FF2802D0FE2813D015E08DF82C802846FFF702FE07460298B84218BF40
:20E688008DF82C600BA904F1110000F0C1FA0298B84202D1079800F052FB2846411C1F28A7
:20E6A800CDB2BDDB0CB0BDE8F081FEE7204A2DE9F04180460124A2F13000046019480768F1
:20E6C800002FFCD01B49184DC0200B1F28601868800806D253F8040C144B000C40F0F00016
:20E6E800187000204FF080571060D7F8F0010E68016830468847D7F8F00142683146404699
:20E708009047D7F8F001816830468847D7F8A001C1680220884740202860074E3460BDE82C
:20E72800F081C0469402224300600C405662084040100940B43F005094046042F8B5B92017
:20E748008DF8000000F0ECFA0121684600F0FCF900F0DEFA0A2400F09BF8002818BFB4F184
:20E768000104F8D14FF0805000F5DC74D0F8B801016A4FF48070884701270D4E0D4D37600D
:20E7880028688008FCD32068016A4FF4A0608847376028688008FCD32068816906208847A0
:20E7A8002068416B062088470228F9D1F8BDC04628200860282008402DE9FC410F46054646
:20E7C80001264FF0020800F0F1F850BB00F0D2F938BB05F0FF04C4F58074B44288BF341CFD
:20E7E8008DF800808DF80350280C8DF80100280A8DF8020000F094FA6846042100F0A4F9E3
:20E80800361B2D1920B93846214600F09DF918B100F07EFABDE8FC8100F07AFA3F19002ED8
:20E82800D1D1BDE8FC81F8B5844640F6FF741CF8013B002210E0481B401E10F8015B7F1EC8
:20E8480001F8015BF9D103E01CF8010B01F8010B521C5B08082AEADA5808F5D21CF8010B7B
:20E868001CF8015B05F00F07FF1CC5F30315122F45EA001508D11CF8016B300A24BF1CF81B
:20E88800010B60F3DF16BF19AC42D4D1F8BDFEE7BCB5184DD5F80200009000F041FA042192
:20E8A800684600F051F9F0B9114C0221204600F003F9024600F02CFABAB905F108002146B7
:20E8C80007683FB102790B789A420AD142794B789A4206D148600068002100B10121084699
:20E8E800BCBD0830ECE700F013FA0020BCBDC0460001002074ED010038B51249124C0020A7
:20E908004FF0805508602068D5F8B8018169202088470E4901200860D5F8D80142680C48E8
:20E92800032190470B49086820F0030008602068D5F8B801806B80470749086840F00040A5
:20E94800086038BD0C4009402C200940282008600040034024220840040009407CB515468E
:20E968000E46044600F022F898B903208DF800008DF80340230C8DF80130200A8DF8020090
:20E9880000F0CEF96846042100F0DEF818B100F0BFF900207CBD2846314600F08DF80246B3
:20E9A80000F0B6F9002002B901207CBD12480EB500788DF8040000F0B3F9684600F070F9BA
:20E9C8000028FAD100F0A4F900F0AAF901A8012100F0BAF802A8012100F06EF8024600F055
:20E9E80097F9002A18BF6FF0010004D19DF808004008E9D200200EBD74ED0100B0B50C48A3
:20EA08000C4DA84210D00C480C4CA0420CD0001BC71054F8040B10F8011B55F8212054F816
:20EA2800041B90477F1EF4D100BF00BFB0BDC046C4ED0100B8ED0100E8ED0100D8ED010091
:20EA480010B50446ADF1300D200308216A46FFF785FF684600F0CAF8012808BF60B20DD00F
:20EA6800684600F09DF8012808BF4FF0FF3005D0641CE4B2202CE7DB6FF001000CB010BD1B
:20EA8800B0B54FF0805000F5EC74D0F8D801094D816828468847C7B257B1206842680021B4
:20EAA8002846904720688168284688470028F9D13846B0BD004003407CB50B4C0B460646D6
:20EAC80000256068800838BF4FF0FF300AD32560684600F0F1F89DF800005B1E06F8010B53
:20EAE800EFD128467CBDC04608000040F8B517460D46044600F02AF9002600B10126002081
:20EB0800311C08BF012014F8011B7F1E05F8011BF9D108B100F020F9F8BD000009480168DF
:20EB28004BF69A120901B2EB114F07D100680B21B1EB107F14BF0020032070474FF0FF3007
:20EB48007047C0461813005098B50F1C03460CD0074C5B1E13F8011F60688008FCD3216041
:20EB6800684600F0A9F87F1EF4D1002098BDC04608000040094808B500788DF8000000F02E
:20EB8800CFF801216846FFF7DFFF024600F0C0F8002A14BF6FF00200002008BD75ED01006C
:20EBA800084910B508300822083911F8013D10F8014DA34218BF002002D1521EF5D10120F1
:20EBC80010BDC046B4ED0100074880F3088800BF00BF00F0C7F808B1FFF710FF002000F06B
:20EBE8007EF8012000F0C0F80044002010B5074C0830082114F8012D10F8013D9A4218BFBE
:20EC0800002002D1491EF5D1012010BDB4ED010070B50C460546FFF733FF06460122294674
:20EC2800204600F005F8304600F01EF870BD000008B5044B1B689B699847034A002111607F
:20EC480008BDC046A801001084046042044908B5096849698847034A0021116008BDC04658
:20EC6800A80100108404604208B528B103480068426803480121904708BDC046D8010010BE
:20EC880000400340054B4FF4807101E0425C5A540A46511E002A89B2F8D170470000002074
:20ECA800044A5168C90803D311680160012070470020704708000040034A5168C908FCD327
:20ECC800116801607047C04608000040D0F8030020B10022401E01F8012BFBD1704708B5CC
:20ECE800FFF7EEF9FFF794FCFFF706FE08BD00001143024A42F820107047C04600100840CB
:20ED080008B5FFF7DDFBFFF75FBFFFF7B6FA08BD02494FF4801008607047C04690200240AC
:20ED280002484FF4801110300160704790200240D0F80320C31D08461946FFF71BBC08B561
:20ED4800D0F800D0001D0068804708BDEFF3108072B6704700207047EFF3108062B6704799
:0CED6800002070470120704700BFFEE74C
:20ED7400050690FFFF00000000002000C215000000001000C214000000000800EF12000000
:20ED940000000400EF11000000000000000000004F414420494D47204F4144204E564D3154
:20EDB8002FE8010039ED0100D5EC01000000000002000000000100000001000004FFF00043
:10EDD800C8ED010000000020D0ED01000001002076
:20FFA80000008001100082FFF9FF58003AFFBFF3FFFFFFFFFFFFFFFFFFFFFFFFFFFFFFFFFC
:20FFC800FFFFFFFFFFFFFFFFFFFFFFFFFFFFFFFFC50DFEC5FFFFFFFF00FFFFFFC500C5FF12
:18FFE800000000FF00E00100FFFFFFFFFFFFFFFFFFFFFFFFFFFFFFFF31
:00000001FF
