:020000040001F9
:203000004F414420494D4720FFFFFFFF0101FEFFFFFF0201FFFFFFFFFFFFFFFFE1BC01002D
:203020003030303138C201002C00FFFF00FEFFFF1800000000300100E1BC0100803F0020E8
:103040000044002001FEFFFF0000000000300100EE
:20305000F8B511F8016B044604F17605112E01BF287801286878102808D104F23D100A7806
:20307000C2760122497801770270F1BD491E204607F06AFA032E17D1A878042818BF0D28F3
:2030900012D16E78142E18BF0E2E0DD12F78204607F05EFA012F06BFAE72FD2131462046B8
:2030B000BDE8F44007F058BAF1BD70472DE9F84FDFF82885DFF82815DFF8286588F80000E0
:2030D0000822002008600D23DFF81C0540F22231027043808180DFF814050660B77EDFF8E9
:2030F00010050770FF2FF17E417008BFFF29327F8270737FC370B57F0571F67F467115D173
:20311000FF2A08BFFF2B11D1FF2D08BFFF2E0DD1DFF8E0140A7802704B7843708A7882707C
:20313000CB78C3700A79027149794171DFF8C81402780A70FF2543784B7082788A70C3782F
:20315000CB700279DFF8B4340A714079DFF8B0244871DFF8B0140D704D708D70CD700D71C5
:203170004D710021DFF8A0041180466BDFF89C14707808703278DFF898141A70B078087065
:20319000B2681079DFF88C24411E1170F078DFF88814DFF888240870F068106008B906F0C0
:2031B0006BFF3069DFF87844206008B906F064FF2068DFF8707401688847226852F8041F5D
:2031D00038468847DFF86004DFF86014386279627069DFF85C14086008B906F04DFFB069F3
:2031F000DFF85014086008B906F046FFF069DFF84814086008B906F03FFFDFF840B4DFF895
:2032100040649BF8040006F03DFE306008B900F043B99BF80500DFF82C7406F033FE386027
:2032300008B9306835E19BF80600DFF81C4406F029FE206020B9306806F080FF386828E113
:203250009BF80700DFF8049406F01CFEC9F8000038B9306806F072FF386806F06FFF206808
:2032700017E1DFF898130A789BF80000DFF8E0A3921C504380B206F005FECAF8080058B90E
:20329000306806F05BFF386806F058FF206806F055FFD9F80000FCE0D8480078002800F01A
:2032B0000081BBF80210DFF8ACB3484380B206F0E9FDCBF8040078B9306806F03FFF386885
:2032D00006F03CFF206806F039FFD9F8000006F035FFDAF80800DCE0C848007806F0D2FD19
:2032F000DD49086080B9306806F028FF386806F025FFD9F8000006F021FFDAF8080006F0D1
:203310001DFFDBF80400C4E0BC4800781821484306F0B8FDD14A1060B0B9306806F00EFF8C
:20333000386806F00BFF206806F008FFD9F8000006F004FFDAF8080006F000FFDBF80400E8
:2033500006F0FCFEC448A3E0AC480078400106F099FDC3490860D0B9306806F0EFFE38688D
:2033700006F0ECFE206806F0E9FED9F8000006F0E5FEDAF8080006F0E1FEDBF8040006F0D2
:20339000DDFEB548006806F0D9FEB44880E09B480078000106F076FDB2490860F0B930684B
:2033B00006F0CCFE386806F0C9FE206806F0C6FED9F8000006F0C2FEDAF8080006F0BEFE8B
:2033D000DBF8040006F0BAFEA348006806F0B6FEA248006806F0B2FEA14859E087480078FA
:2033F000000106F04FFDA049086010BB306806F0A5FE386806F0A2FE206806F09FFED9F80B
:20341000000006F09BFEDAF8080006F097FEDBF8040006F093FE9048006806F08FFE8F48B0
:20343000006806F08BFE8E48006806F087FE8D482EE0724800783021484306F023FD8B4A00
:20345000106070BB306806F079FE386806F076FE206806F073FED9F8000006F06FFEDAF8BD
:20347000080006F06BFEDBF8040006F067FE7A48006806F063FE7948006806F05FFE7848E6
:20349000006806F05BFE7748006806F057FE7648006806F053FE002006F0EEFD4FF4804181
:2034B00095E0316801200871326815733068457331688D733068C57331680D7400213068A6
:2034D000457400203268D172A0223168487103213068C28001720720326850720021306865
:2034F00081722821306801224182C2760020316848770022306880F85E200121326811775E
:20351000012031684B4E81F85D0001223868027139680D733868457339688D733868C5734A
:2035300039680D7400213868457400203A68D172002239684871386882724FF42070396856
:20355000C88008818A7401213B68D9742268157321684D73226895732168CD7322681574B1
:20357000002221684D7401212368DA7200232268117121684B712168C88008818B720520E6
:203590002268937421683A4AC874106880473168054608688047316851F8042F00209047DB
:2035B00019481D4BC16818780A88324902430A802846314A136898470C21304806F0D0FFF0
:2035D000104806F0D1FF00F0B1FF4FF4005198F80000BDE8F44F06F0B1BA00BF6E4F002014
:2035F000044F0020B63F0050604E0020084F00202C4E0020E81200503C4E00207B4F002046
:203610000C4F0020344E002084B801006D4F00206B4F0020724F00206C4F0020F04E002070
:20363000F44E00207C4B0020959E01004DA10100F84E0020FC4E0020B0430020B83F002014
:20365000104F0020144F0020184F00201C4F0020BC430020684E0020004F0020804E0020F4
:20367000844E0020884E00208C4E0020904E0020F0430020544F0020F4430020F84D002088
:203690002DE9F84F0C46E00788B00BD501F0FEFD28B100218160AB48006800B1804784F05E
:2036B00001004CE1A0070FD500210023069105910491039302910191009101223C2006F07A
:2036D00057FF84F002003AE11D2560079E4E9F4F40F18A80002107918B469D488178FF29A5
:2036F00004BF002006F0C8FC386890F8A00000F013FF80463868C07A98F82691022818BF6B
:20371000032808F5907A06D106F10D0006F034FF08B906F1070B5146484606F031FF88B313
:203730003868807A002818BF012804D13146504606F02AFF04E052464946304606F028FF18
:20375000FF2834D005FB00F906EB090506225146E81D04F0C5FD16F80900396840F00209C9
:20377000E81D07900622887E00F0010088F8260105F1010A386800F1140108F5907004F03F
:20379000AFFD14E05146484606F006FF78B152464946304606F0FCFEFF2808D006F10D019F
:2037B0004543481906F0E8FE08B149F0020908F12C004B46017806914289120905920122D1
:2037D000B8F822100491C0880799029140080390CDF804B0CDF800A0002098F8061006F072
:2037F000C7FE84F00400AAE020060FD5002100230691059104910393029101910091012273
:203810003B2006F0B5FE84F0800098E0E0043BD5F11D06F10D0006F0C3FE386841790129E7
:2038300023D1017A012918BF04291ED1C17A022918BF032919D1817E00F11402304606F027
:20385000A7FEFF2811D04543354405F10D0006F093FE50B9E91D05F10D0006F0A1FE3868D9
:203870000622E91D143004F03BFD3A4842683A4800784FF4805106F0ADFA10B18E2002F062
:203890004BF884F480505AE0A00505D504F05AFC324901200860FEE7600504D502F08DFDE7
:2038B00084F480604BE0600405D5812002F034F884F4804043E0A10440D5294D286810B19C
:2038D000002006F0D9FB274E4FF0FF30286006F06BFE3168244D51F8202F68469047234991
:2038F000234B486A8A6A009001920293C86A0268086A0392ADF810000A6B1178002904BFAA
:203910005068002805D19068002804BFD068002806D02970506868609168A960D068E8602D
:2039300029463568134A2E6813486B46B0471349086000F025F884F4005000E0002009B023
:20395000BDE8F08F204F0020AC450020104F0020684E0020784E00206E4F0020FC0020431C
:20397000044F0020F04E002068450020803F0020614601002C4D002038430020EC4E002084
:2039900070B5424C424B2568186855F8183F00224FF0FF3198473F483F4A416B3F4C88687F
:2039B0003F4D41791170002600F06EFB3D4806F0FFFD06F001FE3C48026800215171A023B1
:2039D00001680722CB804A72032103681972002201684A7700230268D3760021036883F8FB
:2039F0005C10012201680A770123026882F85D300021006880F85E100EE06068F1B24FF49E
:203A1000C072514342185379012B04D1F0B200F083FD06F0D5FD761C2978F0B28842ECD371
:203A300006F0D2FD2148224A0178224C117001F06BF906F0CDFD2049204B002008700022D1
:203A50001F491A7001201F4B08701A701E491F4B08701A701B201E491E4B0A701A804FF4A2
:203A7000A4721D491D4B08801A80FB201C491D4A088040F648001C491080FB230B80208005
:203A900006F0AAFD19490020087070BDF04E0020EC4E002084B80100714F0020684E0020A7
:203AB0007B4F0020CC470020104F00206D4F00207A4F00204E4F0020734F0020744F002013
:203AD000754F0020764F0020774F0020784F0020794F0020524F0020444F0020464F00202F
:203AF000484F00204A4F00204C4F00206F4F002038B50C46052C18BF132C05460AD0142CC2
:203B100018BF152C06D01A2C1CBF292C3B2C01D0122032BD06F064FD010010D1E8B200F015
:203B3000FBFC90F87710022901D13A2032BD0021C18380F81041022106F056FD002032BD80
:203B50002DE9FE4F8046B8F1280F0FDA160018BF012E0DD0022E18BF032E09D0042E18BF50
:203B7000052E05D0062E18BF072E01D01220A9E0DFF8549199F8000008B12120A2E00C4646
:203B9000524D534FDFF84CA141F60A01298000226A806D60AA6018462A7B02F060022A734E
:203BB00040F6C41B697B01F0F00141F0020169734FEA48016631A9738021E9732F61C5F88B
:203BD00014A0002139800128BC7018BF0228FE70214622D1002206F00BFD40F27913984271
:203BF000B8BFC7F804B035DB40F2E9318842B8BF41F288302DDB40F259618842B8BF41F6D7
:203C10004C5026DB40F649018842B8BF42F210701FDB002006F030FA1CE003280CBF08222C
:203C300002225143C9001B2000FB021140F2712001F5BC7189B2F93140F2712291FBF2F22A
:203C500000FB1211080018BF012080187A600BFB00F07860387A00F0FE00387200217972A0
:203C70000020F860F97A01F0F00141F00101F972AAF800001848016881F8008000210268DA
:203C900054700368154C9E70092300688180C180802101721248134902780A7089F8003031
:203CB00000F0F2F91048114B0021CDE90001022220680F4C266856F8084F2946A0470D49A7
:203CD00008800020BDE8FE8F6F4F0020CC4C0020C44D0020944E00201C4F0020EC4E0020CC
:203CF000724F0020714F00200200008071460100F04E0020424F0020FEB5282801DB122099
:203D1000FEBD384A117809B12120FEBD364C41F6090121800025617B658001F0F001A560E6
:203D300041F0020161734300257B6633802105F06005A373E1730F2625732C4B2C4964600D
:203D5000236161611E71002555261D601E735E739E730127274DDE7B9D6006F0F0060025EB
:203D700046F001065F711D61DE73802300260D804D808E808B718D601F490B6818700020BA
:203D90000D686870FF2308688370086880218680C68001720A20107000F076F917480C21DC
:203DB000018041F2A40242804FF6FF73144943604FF401620A8008614E804C608E60CE60F1
:203DD0004E61104C104A25681048114B0068CDE9002655F8086F0222B0470E49088000200B
:203DF000FEBD00BF6F4F0020CC4C0020704D0020E04D0020294176711C4F0020444E00206B
:203E1000144D0020F04E002002000080EC4E002071460100424F002080B506F0EDFB1E2815
:203E300008BF002002BD70477CB52829044603DA200018BF012C01D0122076BD1F4D287806
:203E500008B1212076BD490001F6621189B2012000F07AF91A4940F60800002208804A809E
:203E70008A60012C0A7B487B02F0600200F0F0000A7340F00200487349600CBF03200A2074
:203E900000220A828A618873CA7C0E48486102F0F00242F00102CA740B200B4C28700022A6
:203EB000CDE900222568094855F8086F0068084B0222B04707490880002076BD6F4F002099
:203ED000344C002029417671F04E0020EC4E002071460100424F0020FEB5244A107808B15E
:203EF0002120FEBD002322494B8041F60A000B7B088003F0E00343F085030B7380244B7B95
:203F1000CC7303F0F00343F002034B7340F6C41066238B734960174B174C88600B614C6176
:203F300001251D8058602526DD7A187A9E7005F0F005124E002700F0FE0045F00105CDE964
:203F50000067DF7018725F72DF60DD7227800D240B480C4B147002220B4C2568006855F8EF
:203F7000086FB047094908800020FEBD6F4F0020CC4C0020C44D0020944E00200100008044
:203F9000EC4E002071460100F04E0020424F00207CB5282801DB122076BD1E4C217809B171
:203FB000212076BD400000F6621081B2002000F0CBF8194940F60700002208804A808A60D2
:203FD00049600A7B487B02F0600200F0F0000A7340F0020048730220104A114B0A61887304
:203FF0000020CA7B486102F0F00242F00102CA730C20207000220B4C0B4825680068CDE91A
:20401000002255F8086F0222B04708490880002076BD00BF6F4F0020E44C00202941767125
:2040300071460100F04E0020EC4E0020424F002038B5144A137898420C4620D200F06CFA05
:2040500005466879C8B1686A206005F13800698EA180C178A17105F16101B5F83221A4F8D4
:20407000072005220078607204F10A0004F038F9A86AC4F80F00002032BD022032BD1E2039
:2040900032BD00BF7B4F0020FEB506F08DFA0020CDE90000144E154D37682868144C57F8D0
:2040B000105F002302222146A847124AC2E900016088B0F5806F05D0002005F0DDFF8920F1
:2040D00006F09EFA0C480D4BC16818784A880C4C024322800978880643BF0A490868400AAE
:2040F000002009490870F7BDF04E0020EC4E00202C4D0020504E002084B801006C4F0020EB
:20411000544F002080130050704F002038B540F2024290421FBF40F201418842002005F0A4
:20413000ABFF00220548064C815E064B2568186855F8143F01B0BDE830401847424F002051
:20415000F04E0020EC4E002070B588B040F60303ADF8083000249DF815309DF81420194DF4
:20417000ADF80A4003F0F00343F001038DF8153002F060020023039404948DF81420ADF855
:204190001610ADF818308DF81A008DF81B300793CDE900430C4C2E68206856F8104F0222B3
:2041B00002A9A047094AC2E90001BDF80A00B0F5806F05D0002005F05FFF882006F020FA0B
:2041D00008B070BDF04E0020EC4E0020504E00202DE9FE4FDFF8F48198F8011011B900203A
:2041F00005F04AFF06F010FA07464FF0000907F6C4170026764D774C11E0304600F08CF97C
:20421000417951B12A68817902F8091009F101015FFA81F9394606F0FBF9761CF6B2207829
:204230008642EADB98F80110894505D0002005F023FF822006F0E4F998F80100012840F007
:20425000A780002601E0761CF6B22078864280F29980304600F060F9074678790028F2D014
:204270002968B8790A7890421CBF002005F004FFB87985E02868C05D00F04EF90068426899
:20429000DAF808109068814204BF34467F1C00F08D808FE02968087801234FF4C07210E08B
:2042B000D8F8047007F5AD7CCF5C02FB07FE02FB00FA3CF80E403CF80AC0644538BF3846C3
:2042D0005B1CF7B2BB42EBDB06464FF6FF7006F0A3F98246F0B200F01FF94FEA5A010068EB
:2042F000446840F6C410414300270190009117E0F0B200F011F901680A78802A03D1DBF85C
:204310001030009A5A610978402908D1324A8079116801EB4012009800F5A060D0617F1CB0
:204330004F4551DA2868C05DF1B28142F7D001464FF4C073D8F80420594302EB010C02F596
:20435000AD72BCF80E30515A5A088A4202D25B1A9945E4DA00F0E0F80068D0F804B0A268C8
:20437000DBF80810019B4FEA5A00A1F6C41103FB002006F055F90028BAD02868C05DC0B274
:20439000BDE8FE8F002005F077FE822006F038F998F80110286806F047F92868007800F029
:2043B000BBF800240068D0F804A00127661C4F45FFF660AFE4B2002C1CBFF0B200287FF426
:2043D00069AF2868067880E73046D8E7684E0020004F00207B4F0020844E002038B50446B3
:2043F0000D4606F025F9012802BF142D1B21A4F87A1132BD38B50446182006F01DF9002826
:2044100049D0A0F1090594F89400002814BF1D201920E880002105F10803296029716971BC
:20443000032018700F2104F5A07003F8011F02885A700188090A99704188D9704288120A7C
:204450001A71818859718288120A9A71C188D9710021C0885972000A18729972FF201873AD
:2044700058739873D873187458749874D874187558759875D875D97294F8940020B1182231
:204490000321204606F0DCF8A06E294606F0DCF80020E083012032BDFEB50C46154640F648
:2044B0007B41A21F8A423CBFAE1F8E4229D2A54227D3B3F5FA7F24DA0899A1F10A0640F697
:2044D0007747BE423FBF5B1C6E005E43B6EBC10F17D290F8941041B1D0F834010A21B0FB3F
:2044F000F1F1C9006B4399420BD30C990B98019100900A9B099A2946204606F0A9F8012853
:2045100001D10120FEBD0020FEBD7047014A106091807047B4430020034A53684FF4C07135
:2045300048431844704700BF684E002038B5144C144D206850F8041F8847226852F80C1FC9
:204550002846884723682A4653F8085F00210020A8470D4D286008B905F08EFD23682868F3
:2045700053F8144F00220721A047084910F1010F086004D1BDE83240002005F07DBD31BD59
:20459000F84E0020244F0020284F00202C4F00202DE9F8430A4F044638680D460168164634
:2045B000984688478146434632462946204606F053F8396851F8042F4846BDE8F243104784
:2045D000B043002072B501F00305121D87B002268DF81C50ADF816200293019007AB184D01
:2045F000184A29680C9C8DF8021004258DF8035004940121D56A144C8DF8006003938DF81F
:204610001460ADF8181028782168104E00280CBF20311C310A6830686946904770B12878E0
:20463000216800280CBF20311C310A68306869469047401E8041C00F05F01EFD08B070BDDD
:204650002C4F002084B80100F84E0020284F002002494FF6FF700880704700BFCA0000218D
:2046700010B51446600548BF00F0A6F9600348BF00F0B2F9200248BF00F090FA14F0030F52
:2046900018BF00F081F8002C03D5BDE8104000F001B810BD80B5002005F0EEFC822005F090
:2046B000AFFFBDE8014005F0DBBF704732488078FF2800D170472DE9F041FFF72DFF05463B
:2046D00095F80F0101281EBF29684878002850D02A48447BC37A027B817AC07901EB00087B
:2046F00090440028984408BF002BA04403D1002A08BF002C01D0002603E0002914BF01260E
:2047100002261F4F3868A0B3B888AA7990421CBF4FF6FD7188422CD11A48007A05F0D4FCD5
:20473000040026D02670A879608095F83910217195F974006071A4F80680B5F81401208118
:2047500000F0A4FD050005D1FF204FF0FF31A072E16009E02878A07205F056FF0146A868C0
:2047700005F082FF8008E06020463968BDE8F0410847BDE8F08100BF684E00205C4D00204B
:20479000B4430020B83F0020FEB57748774A0078774C784B78490D2840D8DFE800F0E307FB
:2047B000070707DBDB5EDB9A9AB8B8BF146041F2044572494C88AC421FBF4E8BAE424F8E91
:2047D000AF4203D11D806E4810607AE0002C6D4D1C804FF4A05639D0641E3CD0641E35D00E
:2047F00040F2FE37E41B1AD0241F012C1DD94FF47F77E41B1BD04FF44067E41B0FD0A41E46
:20481000012C0CD9241F0AD0641E012C0DD940F2F937E41B012C19D9241F08D09AE0022885
:2048300014BF1E80584D15604BE0584DFBE7584803681C7A012C05D141F20240488048837F
:204850004886F0E74E804E834E86ECE7002005F013FC832082E08F2080E04E488178FF296E
:2048700054D0146018204C4C41432068851C40F204466C5A1C80A41B012C484B72D94FF428
:204890007F76A41B0FD04FF44066A41B032C84BF641F012C0BD9A41E012C63D940F2FD3637
:2048B000A41B08D103E0801C41F2014444521360FFF7FCFE05E0002005F0DEFB852005F0F3
:2048D0009FFE03B0BDE8F04035480078012105F035B940F204424888188090421CBF41F2E9
:2048F000084290423ED041F60402904211D12D4C2D482E4B00680025CDE9004502222C4C02
:20491000256855F8086FB0472A490880F7BD48881880002005F0B0FB85201FE0488818805C
:2049300002280DD940F20442801A1BD040F6FC72801A05D0083815D04FF47F72801AE8D19B
:20495000887B801CC2B2B52AA8BF6620887300204880F7BD002005F08FFB8420BDE8FE40AB
:2049700005F04EBEF7BD00BF6F4F0020204F0020B1570100504F0020CC4C0020204A0020BC
:2049900059550110615A0110B1540110755B0110104F0020684E0020804E002031390110C7
:2049B0006E4F002002000080EC4E002071460100F04E0020424F002006488078FF2800D129
:2049D000704780B5FFF7A8FDBDE80440002105F04FBE00BF684E002066480178002900D17E
:2049F00070472DE9F843491E032984B004D9891F012940F2BC80B4E05F4CDFF8809120680C
:204A1000DFF87C8103685F4E03F10805062205F1080102A803F064FC0622A91C684603F0E7
:204A30005FFC2878C1091D2700F00F02032AC0F3801537D16079C0F3800081421ED1216997
:204A5000062202A803F0B6FB00280AD06946284605F096FD002804D03146684605F094FD82
:204A7000FF2879D04743D8F80000807AF519002818BF02280AD0012818BF03286CD1F25D9A
:204A9000691C484605F0F8FD102865D06B46EA1D2946484605F0F4FD06226946E81D03F032
:204AB0001FFC59E000F00F00052860D16079C0F38000814250D12169062202A803F07AFB81
:204AD000002849D06946284605F05AFD002843D03146684605F058FDFF283DD04743D8F8E4
:204AF0000000807AF519002818BF01280AD0022818BF032830D1F25D691C484605F0BCFD5F
:204B1000102829D040F20240FFF700FB6B46EA1D2946484605F0B4FD06226946E81D03F0C5
:204B3000DFFBD8F80010F05D88760622D8F80000691C143003F0D4FB1348144A41F20441AC
:204B5000418041834186124801801249124811600121007804F0F2FF21680A6800201071DD
:204B700005E0002005F088FA862005F049FD05B0BDE8F0836F4F0020F44B0020CC4700208B
:204B9000104F0020AC450020204A0020204F0020504F0020595501106E4F002053480178ED
:204BB000042900D870472DE9F84F891F2FD0491E012900F29080DFF838A19AF80200FF2827
:204BD00025D0FFF7A9FC83460BF16C07786805F05BFD804698F80400032818D1D8F808008A
:204BF000047814F0030404D17868BDE8F24F05F04FBD4578032C00F102090BF20F160BD09D
:204C100035B1387820B93D217170012030706AE038490A78012A66D09BF8941059B32D1FD8
:204C3000EDB24B462A462146584605F035FD40B93D207070012131702F48BDE8F24F05F04D
:204C50002FBD2E480168884706469BF80610DAF804204FF4C07041435018002280F839216C
:204C70000BF59A7001688079490805F0D1F924490A68304690470020032CC8F8080016D07F
:204C9000204841690878820707D5C0074CBF03200020401919F8000000E0812038722346FA
:204CB0009AF802002A46494605F0FEFC0AE00F480178082903D049465846FEF7C1F948463A
:204CD00005F044FA786805F0E3FC41465846BDE8F44F05F0EDBC002005F0CEF9BDE8F24F70
:204CF000862005F08DBCBDE8F18F00BF6F4F0020684E0020794F0020AC450020F0430020DC
:204D1000F443002084B8010070B50020FF210B4A0B4B09E0182496684443264400257570C1
:204D3000401C95682955C0B21C78A41CA042F1DB002091701080506070BD00BFBC430020AC
:204D50007B4F00202DE9F84FB34D696884B0019121B905B0BDE8F04F05F0AEBC0978DFF83B
:204D7000BC82AF4EDFF8BC92DFF8BCA201291CBF0229042946F2A81741F64C5B05D040291E
:204D900018BF802900F096803CE100F0DFFA0028FAD00198007800F085F90090446814B91D
:204DB000002005F069F99AF8010000285CD0FFF70FFAFFF7B1FB02900168009801914F6808
:204DD00000F03AF9022825D000990A78012ADBD196490A68137A19F80310317018B905F026
:204DF00013FC5844A0602069C17E01F0EF01C1762069C17E41F08001C1762069C17E01F0AE
:204E1000F00141F00201C1762269B96888484118D1614BE001980178802911D10820854961
:204E300030700A78012A03D09AF80100022801DB38690CE0D8F828003A690178D1720DE0D8
:204E50007C49072030700A783869012A02D10121C17203E0D8F828104A78C27202988179CB
:204E700001988AF80210C8E0009800288CD00199009A0078914205D101281CBF002005F0C3
:204E9000FBF815E0012840F0BD80684801680A7A19F80200307005F0B7FB3918A06805F03F
:204EB000BFFB18B905F0B0FB5844A0600120A8700098A2E09AF8010000287AD0FFF788F94C
:204ED000FFF72AFB04462068029047689AF80200FFF722FB039000F017FA10F0070F3DD036
:204EF000A87800F0DFF80190416801980091029900F0A2F8022831D001990A78012A2AD1C5
:204F10004A490A68137A19F80310317028B905F07BFB83440098C0F808B000980069C17ECF
:204F300001F0EF01C17600980069C17E41F08001C17600980069C17E01F0F00141F00201CA
:204F5000C176009AB9683A4841181069C16101210198A97051E0002005F08EF80398A042BC
:204F700025D0029833490278802A12D1082030700978012903D09AF80100022803DB38698D
:204F90000121C17210E0D8F828003A690178D1720AE0072030700978386901290EBF012278
:204FB000D8F828104A78C272A0798AF80200029823E000F0A9F910F0070F29D0A87800F0F8
:204FD00071F804462078D4F80480012820D117490868027A19F80210317005F015FB3918A6
:204FF000D8F8080005F01CFB20B905F00DFB5844C8F808000120A870204605B0BDE8F04F4B
:2050100000F0AAB905B0BDE8F04F002005F034B805B0BDE8F08F00BFBC43002084B801009F
:205030006F4F0020289A0110684E0020104F0020F0D8FFFF734F002070B54C68456860B319
:2050500005F0E2FA064606F6C416A068314605F0E7FA012808D0A068314605F0E1FA01287F
:2050700018BF002005F008F8A068314605F0FCFA48F6B901884210D3A16809484118A86862
:2050900005F0CEFA48B906F58846A86806F15C0105F0C6FA10B1012070BD022070BD00BF43
:2050B0004877FFFF2DE9F041FF2807461ED100F02BF910F0070F16D0042000F009F908B19A
:2050D00004200AE0012000F003F908B1012004E0022000F0FDF820B10220BDE8F04100F027
:2050F00019B904F0C9FF0020BDE8F08100F012F98046012FD8F80450334E04D0022F29D048
:20511000042F3DD0EFE7022000F0E2F880B1022000F000F9074601207C6800F0D9F828B155
:20513000A0683118A86805F07BFA88B13846DBE7042000F0CDF828B1042000F0EBF8074625
:20515000012026E0012000F0C3F808B94FF000084046C9E7042000F0BBF828B1042000F05A
:20517000D9F80746022014E0012000F0B1F828B1012000F0CFF8074602200AE00220E2E73C
:20519000012000F0A5F888B1012000F0C3F8074604207C6800F09CF80028C7D0A068311863
:2051B000A86805F03DFA0028C0D1D1E7022000F08FF830B1022000F0ADF8074604207C68AC
:2051D000E8E70420BFE700BF589EFFFF70B51C4E1C4D317804462878891C8842A4BF0020F6
:2051F00004F04AFF0022A968182353431944487828B90B78FF2B0DD0686881420AD13178BF
:20521000521CD2B2891C8A42EDDB002004F034FF002070BD0020486048610C7001204870F9
:2052300028786A78401C28702243C0B201281CBF802C402C6A7000D16960084670BD00BF47
:205250007B4F0020BC43002038B5040004BF002004F012FF0B4D287808B904F00DFF20681B
:205270000021216041702A78697800788143501E28706970C0B218B9034A68600021117033
:2052900031BD00BFBC4300206F4F00200249087800B14868704700BFBC43002030B50A4A5A
:2052B00092680021CBB218246343D55C854208D0064C2578491CCBB2AD1CAB42F2DB002020
:2052D00030BDD018407830BDBC4300207B4F002030B500210A4A182394684B43E55C854214
:2052F00002BFE3185B78012B08D0064B1C78491CC9B2A41CA142EEDB002030BD012030BDBF
:20531000BC4300207B4F002001484078704700BFBC43002050B501460A48836800221820FB
:2053300050431C5C8C4202BF18184678012E07D005480478521CD2B2A41CA242EFDB002086
:2053500050BD00BFBC4300207B4F002001480078704700BFBC4300207CB5040004BF0020FA
:2053700004F08AFE22494C60606900B180476068017B01F00F0102290CBF806805F044F9F4
:20539000A0602078802818BF402813D1194800218022017041708170C1700171417181711C
:2053B000C171017241728172C17201734173C173016182731049114B0878002814BF104824
:2053D00010480021CDE90001022261680E4C0F482568006855F8086FB0470D4910F1020FD7
:2053F000088004D1BDE87640002004F045BE73BDBC4300205C4D0020784E00207146010018
:205410000204848002048080F04E0020EC4E0020424F00202DE9F84FD74CA178FF2904BF7F
:20543000002004F029FEA078FFF776F8044604F1680504F190062968086810B10021E18327
:205450000CE0A87B002804BFA97E002906D13078002801BF207F0128608CE0832189E08B5F
:205470004118491C6181204605F02AF901281EBFC2480178012904D121890020491CE083E4
:2054900061814FF6FF77A87E01280DD1AA8B6189208905F019F938B1218960894A1C93B23C
:2054B00098421BD0A88B0FE03078012816D172886189208905F008F980B1218960894A1C90
:2054D00093B298420AD0708892B2904206D03818608180B205F0FCF83F18E78304F59679CA
:2054F00099F8040020B120890021401CE183608104F12E07A87E01283ED12289A88B521CF7
:2055100092B2904238D1608104F18601204605F0E3F8A88C608400212177E183E089618941
:205530004118A181A88B218905F0D2F88046B988288C6A8C01FB0808E88C8A4204BF3989C2
:20555000884202BFAB8CF9888B4207D000090090AB8CA1795208002005F0C2F8A87F387072
:20557000698CB980A88CF8802046E98C398105F0BBF80220A87601E0B7F80480B4F81EC026
:2055900022687F4ED2F80CE00CF1010000FB08F340F6C41000FB03F18E44C2F80CE03668EB
:2055B000DFF8E0E13678BEF80080774AB609032E11D1D67BF60748BF4FF000080BD408F158
:2055D00001081FFA88F6012E12BF668AB9F8066006F2DC5600E0668A5E434FF4C87AB6FB43
:2055F000FAF6761C6661AEF80080A3614FF0180894F806A084F820C008FB0AFADFF88CC110
:20561000DCF800E023680EF1080656F80AB0C3F810B094F806A008FB0AFACDF800A0D3F842
:205630000CB0D4F814A0ABEB0A0ADDF800B046F80BA094F806A008FB0AFA56F80A609E6017
:205650000EF10C06A37908FB03F30EF10C0EF65C06F0F00646F002060EF803604FF0000ACD
:20567000DCF800E0A6790EF1020308FB06F623F806A0474BA6791B68760103F1140AD4F8FA
:2056900014B05AF806A00AEB4B0A03F1140B4BF806A0AD7E022D0BD1A5796D0103F1140628
:2056B00097F800B056F805A000FB0BAA46F805A0BD88D27BA779D60737D508FB07F70EF17A
:2056D0000802D659A6F5A86A0EF1080646F807A0A77908FB07F7D2592768511A3961BA60E8
:2056F00003F11402A1794901575807F5F667575003F11401A27952018958C9F800106843A9
:20571000244A156BA779296803F11C067F01401AA0F51670F0512049A07903EB40100B784B
:20573000012B14D10121C17214E003F114027F01D1592A464243A1F5E661A2F51672914287
:20575000DDD30821204604F0D3FF012011E0916A4A78C272A179DCF8000008FB01F28118B4
:205770002268516007200D490870204604F0C4FF0020BDE8F28F00BF684E0020784F00200A
:20579000084F0020C84300205C4D0020804E0020844E002084B80100734F00206F4F0020B1
:2057B000002004F069BC00B585B00DF1020201A9684604F0A5FF8DF8080008218DF8091070
:2057D00002A80321C1702222BDF804108DF80D108DF80A20090A8DF80E10BDF802109DF84A
:2057F00000208DF80F108DF80C20090A017202AA092141F2010004F087FF002005B000BD88
:2058100030B50D4685B00446102104F081FF1021284604F07DFF0DF101022946204604F043
:205830007BFF8DF8000042F2170438B910210DF1010004F06DFF6A46112101E06A460121F4
:20585000204604F061FF002005B030BD30B585B00D4605218DF8001004228DF8012004467E
:20587000102104F055FF1021284604F051FF0DF103022946204604F053FF8DF802004FF6D2
:20589000054438B910210DF1030004F041FF6A46132104E012208DF802006A46032120469D
:2058B00004F042FF002005B030BD7CB506464FF6244501BB162004F0E5FA040011D02420C8
:2058D0002070042161703046E11CFEF7B1FBA07022461621284604F027FF204604F02EFC63
:2058F00018E02420042107228DF800008DF801108DF8022009E0FEF79BFB8DF8020004212C
:2059100024208DF800008DF801106A460321284604F00AFF002076BD38B504461948417835
:205930000A062DD5184D287870B1184A117859B9032002F0A3FC010022D091200870102220
:205950004A708C70287817E00C2002F097FCB8B101210170FF2200F10803427043600421A6
:205970001970102341684B70012241688A70014642680748D4700078BDE8344004F0E6BC86
:2059900031BD00BF1C4E0020CC430020624F0020CA43002080B50849084A087000200849D2
:2059B00010700870074A08491070087004F0C0FE06490020087001BDCA430020CB43002093
:2059D000CC430020CD430020CE430020624F00203EB50D46290411D5164A107804F066F8C3
:2059F000040009D02078032812BF0128E06804F0ADFB204602F054FC85F4004568070AD565
:205A10000D4A0821D2E90034CDE90034684604F033FD85F0040528070AD5084A0821D2E989
:205A30000034CDE90034684604F026FD85F0080528463EBDCA430020BCB80100C4B8010069
:205A500001490870704700BFCC43002001490870704700BFCD43002001490870704700BF2F
:205A7000CE43002038B505462A2D0C460FDA4FF6FF7291420BD01D2804D13C20604380B26C
:205A900004F05AFE034921F81540002032BD022032BD00BFC43F00202A2803DA034931F84A
:205AB000100070474FF6FF70704700BFC43F002010B50A4C60601022002102F0AFFB0128CF
:205AD00003D16068102104F03BFE606804F03AFDBDE81040012004F037BE00BF504C00204F
:205AF0000249086800B10120704700BFA44E002078B50446200085B00D46164601D0022D06
:205B100001DB02201AE030464FF6FD72904205D0694604F01DFE08B134200FE0012D06D1ED
:205B30004FF6FF710020FEF7F1FC002403E031460348FEF7EBFC03480460002006B070BD47
:205B5000C95C0100D043002070B505460026A88804F002FE0446A88804F002FE042801BFC8
:205B70001448A9880288914204BF4FF6FF7303801CB12678A88804F0F7FD0F4C207840B1C7
:205B9000864206D10D49097804F0F2FD48B100202070300005D0AB79AA88A878314604F00D
:205BB000EBFD0749086818B1BDE8704004F0E8BD70BD00BF9C4500205B4F00205C4F0020F4
:205BD000A44E00202DE9F84F804691460A9DDDF82CB00C9E0D9C9A46484604F0BDFDF0B141
:205BF000B8F1000F1BD101795FEA0A724CBF41F0200101F0DF01002D08BFBBF1000F03D101
:205C1000002E08BF002C51D041F00401017134B12169816210222146183002F061FB254F95
:205C30003868002840D085B1D0F8A40028B91C2004F028F93968C1F8A4003868D0F8A4009E
:205C500018B11C22294602F04BFB8EB13968D1F8A80028B9172004F015F93968C1F8A80019
:205C70003868D0F8A80018B11722314602F038FB8CB13968D1F8AC0028B9142004F002F90F
:205C90003968C1F8AC003868D0F8AC0018B11422214602F025FB5B4652464946404601B063
:205CB000BDE8F04F04F070BDBDE8F18F01F0FB010171B4E7A44E002003490968002918BFE1
:205CD000084704F03BBA00BFD04300202DE9FF41284C2068002849D08578274F04F058FD3B
:205CF00080B1032D05D00A20FFF7D6FE06460B2016E02820FFF7D0FE06462920FFF7CCFE9C
:205D1000804620E004F048FD28B10620FFF7C4FE0646072004E00820FFF7BEFE0646092017
:205D3000FFF7BAFE8046012D12BF042D3878032809D12068C178022908BF002102D0032928
:205D500014D10121C170387804F02AFD2168CA7A03920C1D8B7A029301940346C97800915B
:205D70002A464146304604F01FFD00E0012004B0BDE8F0819C4E0020594F00202DE9FE43A2
:205D90000D884A88AA4201D32A0001D1012075E000230024ADF8043002944FF6FF78814621
:205DB0000F4627E00294287802283AD1BDF8006001218DF80610B6082878022860D1688990
:205DD00004F8010B02226989090A04F8011B2046696802F085FAA41CBDF80400401CADF848
:205DF0000400B1B2BDF80400884249D26D89454546D06D1C00200090002379880022A8B21F
:205E100004F0D6FC05003BD0BDF8040008BB6B4642460521484604F0CFFC0400C2D11120AC
:205E30002CE002208DF806001221BDF8000090FBF1F62A78102A23D1688904F8010B698984
:205E5000090A04F8011B2046696802F049FA1034C2E79DF806000128EBD1ADE701A9484662
:205E700004F0AEFC48B101AB05221621484604F0ABFC10B1029804F069F90020BDE8FE8351
:205E9000BDF804000028E9D10A20F7E77CB504460D4604F09DFC06000AD101A82146009073
:205EB000ADF804507F23034C2078002204F094FC304676BDA645002038B50446208810B156
:205ED000B0F5807F01DB182032BD0E4A61881388994203D340F20125A94201DB1B2032BD35
:205EF0000949237A0A789A4201D2022032BD00F0F3FF08B1112032BD2046BDE8324000F039
:205F1000ABBF00BFA0450020D843002038B50546084600F0E1FF04000AD0607AA84207D138
:205F3000204600F0B7FF08B1122032BD208032BD022032BD10B50C0012D000F0CDFF78B133
:205F50004188084A2180138863808188A180C288E280017A217200F09DFF6072002010BDC8
:205F7000022010BDA0450020F8B50E46144600F0B3FF050018BF002C24D0300022D0720090
:205F90000021204602F09CF900211048027891421ADA0F4B1F6807EB0112107800281CBFB8
:205FB000D06800280CD00B4B007F1F6807EB0013AB4205D1508824F81100761EF2B21AB169
:205FD000491CE2E70220F2BD0020F2BD664F0020E44E0020D443002010B50C000AD000F0EA
:205FF00093FF38B101782170A11CC06800F098FE002010BD022010BD38B50546288800F0ED
:2060100083FF04001CBFE068002806D02178012903D1E08804F0E4FB08B9142032BDE368C8
:20603000587FE0B96A680AB9022032BD298911B19888884201D21B2032BDD86808B11620B0
:2060500032BD1982DA6000215982188808B9FF21597701210248007803F070FD002032BDCC
:20607000654F002070B5054686B01646084600F033FF04001ED000F00DFF217A884217D28E
:20609000ADF80C6003AA60880C490D4BADF810000888ADF81200FF21A088ADF8140001910E
:2060B0000220009002941421284600F08FFA02E0152000E0022006B070BD00BFA0450020AC
:2060D0002F6A010038B5154600F05CFF04000AD004F08AFB2179E08823462A4601B0BDE8FB
:2060F000304000F025BC022032BD7047F8B5ADF80E00FF21002003220290019100920621E5
:20611000034B03AA4FF6FF7000F060FA05B000BD276B010070B506460D4600F0F5FE0400C6
:206130001CBFE068002815D0290011D04FF6FF720089521B82420BDBE0882A46314600F080
:206150008DFF010007D1E1680A89AD180D8170BD182070BD022070BD024902780A704078C3
:206170004870704718400020F8B5234C234E244D207004F03DFB30220021224802F0A0F807
:20619000307870B1000103F07DFE1F49086040B132781E490A70920073782B70002102F040
:2061B0008FF81B4A287811781A4E1B4F081830700006000D03F066FE386088B13278120130
:2061D000002102F07DF800203278C1B291420AD23968030601EB1355FF226A72401CF3E70A
:2061F0003070002129702078FFF730FCBDE8F2400A4804F001BB00BF654F00201840002097
:20621000D84300201C4B0020D4430020CF430020694F0020664F0020E44E0020257D011091
:206230003EB5054629466C88684600F0C7FB0146019838B3BDF80000052804D169462046B6
:2062500004F0DEFA20E004281CBF0628072813D103460C21114A4B43D118A1F1300318886D
:2062700090B198786A46214604F0CEFA60B9BDF80000042810D00BE06946204600F0CAFA5C
:2062900010B937BD012903D1A86808B103F05EFF0121204604F0BCFA37BD00BF1C4B0020AE
:2062B0002DE9F0410E4688B005467078904604F0B3FA012704000AD00020207131780129C7
:2062D00006D007295DD013296CD015291FD072E07288414602A804F0A3FA8046204604F0A8
:2062F00083FA3378152B18BF072B08D002A80190002100914246207A294604F095FA17B17C
:20631000204600F091FD404608B0BDE8F0812078022850D17288414602A800F0D9FB00283B
:206330008046DBD1BDF81000002120BBBDF808004038402817D2BDF80A001728A4BFBDF87E
:206350000C0017280FDBE068BDF80E200280BDF808304380BDF80A208280BDF80C20C28097
:206370002770002707E0E168BDF8080048806088FFF7BCFE0221BDF81020204600F022FC86
:20639000ACE72078032816D17288414602A800F0EBFB00288046A1D101220021204600F0B5
:2063B00035FC9BE72078042805D17288414602A804F03EFA91E70020A6E77047F8B588B068
:2063D000064600250F4611463878062812D0122874D0142802D016283BD083E07A886846E8
:2063F00000F038FB050004D179786A46304600F08BF87EE07A8802A800F099FB050078D12A
:20641000BDF8080000F080FD040018D0BDF808003949ADF80400009101ABBDF80A00ADF8CD
:20643000060007217A78304604F006FA02220021204600F0EBFB204600F0F6FC59E002209E
:20645000ADF80000BDF80810BDF80A00ADF8021031E07A8802A800F0A4FB050049D1BDF824
:206470000810304600F06AFDE8B1C268BDF80A4013884FF6FF76361B9E4210DBE318138066
:206490009BB2002B1CBFD068002832D01B49087878B31B480078012103F050FB29E00321C0
:2064B00000F0CCFD25E0BDF8080002210022ADF80010ADF80220ADF8040015E07A8802A846
:2064D00004F0BEF9050014D10E4CA08988B102A9019100227878009031463B78A07B04F043
:2064F000A3F906E0ADF8005079786A46304604F0ABF9284609B0F0BD616B0100674F0020EF
:20651000654F00201C4B0020FEB5174605467888403840280E464AD2B8881728A4BFF98802
:20653000172940DB88423ED300210091388800F0D3FC04002FD000F0ADFC217A884228D2E9
:206550006B462246FF21284600F048FC08BB0098C068398901807A884280B9888180FA8802
:20657000C280A1880181E3688BB13A463146284698474FF6FF7290420ED1009906200870B5
:206590001E2100980671009804F062F9F7BD002002E0042000E00220009B02463146284612
:2065B00000F0C6F9F7BD0020ADF8040008E002210022ADF80410ADF806207888ADF8080041
:2065D00001AA3146284604F03FF9F7BD2DE9FC410C46062C074615461E460CD1688800F09B
:2065F00093FC019008B9022037E0C168488828800199CF8806E00A9A099901AB00F0EEFB2E
:20661000804648BB01990898087015480178491CCAB2002A06BF012101220A460170142C03
:206630000198027106D101984188288969800199CA68108100962B4601980279214638460E
:2066500004F0FAF8804620B901981E2104F000F902E0019800F0E8FB4046BDE8F68100BF31
:20667000684F002080B5052004F0F6F858B9062004F0F2F838B9042004F0EEF818B90720FB
:2066900004F0EAF808B1012002BD0449087818B1BDE8014000F004B802BD00BFD84300209A
:2066B000F8B5124C124E207800F028F832780546954219D20F4B1878A0B10F49086800EB12
:2066D0000517384600F048F8010003D0384600F0A2FC09E06D1C3178E8B2884226BF00227A
:2066F000227025700120F2BD0020F2BDD9430020D8430020674F0020E44E0020F8B506462C
:206710003746134D2868390600EB11542278012A11D1E16800291CBFCA68002A0BD00888B2
:20673000A0B94A7FFF2A06D16221204600F088FAE068002242777F1C06480078F9B28142DA
:2067500028BF0027F9B2B142DCD1F2BDF8B2F2BDE44E0020D84300202DE9FF4180462C48AB
:20677000D8F80C700088FD883E8AA84238BF0546788A20B9B21CAA4206DAB61C05E0321A44
:20679000AA42B8BF361A00DB2E46B0B204F068F8040037D07988ADF800100194ADF80860CE
:2067B000788A48B9388A2070000A6070A41CB0B2A8422CBFB61E3E8AF868798A0144B2B2FB
:2067D000204601F08DFDB8F80600694604F04CF8050013D13888401E3880798A76187E82DB
:2067F000B6B23A8A964204D30021404600F013FC09E080B238B9FF20787704E0204603F0B1
:20681000A5FC00E01325284604B0BDE8F08100BFA04500202DE9FF470E468146308800F094
:2068300073FB04001CBFE06800287BD0E188494578D105462889002870D0401EDFF8EC80FB
:206850002A7F288180B2D8F8001001EB0213D988884203D16321204600F0F2F9686920BB53
:2068700070680778417807EB0127BAB23189921C8A426FF0010A0BD1514603F0DBF97060CA
:2068900037813246207A494603F0BEFF68B94AE0B8B203F021FC68612F835146706803F03D
:2068B000C9F970603089811E31816869A0B36B8B32892F8BD1188F422CDBD8F8007095F80F
:2068D0001CC007EB0C177F888F4221DB7168184401F006FD698B30892A8B4118698389B2D8
:2068F00091421FD16088ADF800006A46696901914946288BADF80800207A03F085FF10B163
:20691000686903F023FC002068616883288309E0052104E0042102E0092100E00621204674
:2069300000F08CFB012004B0BDE8F087D4430020F8B584B005460E4617461C460A2200211C
:2069500001A801F0BDFC3800ADF80C7013D1184960880A88ADF80400ADF80820E06850B1FD
:206970001449037F0A6802EB03114A88ADF806200089ADF80A0001AB0F480090324615219F
:20699000284603F059FF050008BF002F08D101202070002121710022204600F013F903E08F
:2069B00014B1204600F040FA284605B0F0BD00BFA0450020D4430020AB6A0100F8B504469A
:2069D0000D46002060602979022926D1E888042823DBA9680E784A788F78C97806EB02265C
:2069F000B2B2121D07EB01278242BFB215D1052F18BF042F07D0062F18BF072F03D0384617
:206A100000F082FA48B1268127806FF00301A86803F010F960600020F2BD0120F2BD0A8853
:206A300002700B881B0A43704A8882704B881B0AC3708A8802718B881B0A4371CA888271C4
:206A5000CB881B0AC3710A8902720989090A41720A2070470A2A1ED10A784B7802EB0322C0
:206A7000028011F8022F4B7802EB0322428011F8022F4B7802EB0322828011F8022F4B78A5
:206A900002EB0322C28011F8022F497802EB0122028100207047012070470A8802700B88BE
:206AB0001B0A43704A8882704B881B0AC3708A8802718B881B0A4371CA888271CB881B0AD1
:206AD000C3710A8902720989090A41720A2070470A2A1ED10A784B7802EB0322028011F82D
:206AF000022F4B7802EB0322428011F8022F4B7802EB0322828011F8022F4B7802EB03229E
:206B1000C28011F8022F497802EB0122028100207047012070470A8802700B881B0A437077
:206B30004A8882704988090AC17004207047042A0CD10A784B7802EB0322028011F8022F73
:206B5000497802EB0122428000207047012070470A8802700B881B0A43704A8882704988DF
:206B7000090AC17004207047042A0CD10A784B7802EB0322028011F8022F497802EB0122F7
:206B9000428000207047012070470A8802700B881B0A43704A8882704988090AC170042008
:206BB0007047042A0CD10A784B7802EB0322028011F8022F497802EB012242800020704786
:206BD0000120704770B504460D46280088B0164610D11622002102A801F072FBADF8086000
:206BF00036B96088ADF80A0003A9E06800F098F802A800E0002001906023002000902A46AD
:206C1000E188207A03F010FE08B070BD1FB50B000BD1ADF80C204388ADF80830C26802B16A
:206C30005288ADF80A2002AA00E000220192002400940A46C188007A612303F0F5FD1FBD4A
:206C500038B5044688B0E2680D463AB35088ADF80A00622919D11B48D1880088884238BF2A
:206C70000146508A128A121A92B208B9921C92B292FBF1F0ADF80C0001FB102199B1BDF8D9
:206C90000C00401CADF80C000DE00F480168107F8B1D0001195AADF80C1004E00622002185
:206CB00002A801F00DFB6088ADF8080002A9019100220092E188207A2B4603F0B5FD09B0C9
:206CD00030BD00BFA0450020D443002038B5044688B0E0680D4678B10188ADF80A10418878
:206CF000ADF80C100189ADF80E10418AADF81210008AADF8100004E00C22002102A801F0D7
:206D1000DFFA6088ADF8080002A9019100220092E188207A64232A4603F086FD09B030BDEE
:206D300038B504460D4612220021284601F0C8FAE4B10F48217F00680901425A2A80217F5F
:206D500000EB01130B495A886A800B88AB802288EA8061882981A2886A81E188A98122894C
:206D7000EA81217F00EB0110C2882A8231BD00BFD4430020A045002038B501461448154B2D
:206D900002781878002400290CBF0446024600E0641CE0B2904219DA0F4B1D6805EB001594
:206DB00068880028F4D149B1202003F06BF8E86060B12022002101F083FA00E0E860E4B26E
:206DD0000021403429706C80284632BD002032BD664F0020D8430020E44E0020F8B51C00F2
:206DF00006460F4615461AD0012103F0F9FCA0B12846FFF7C1FF70B1C68045B16A7A094B89
:206E100002721968C2686D1A2D11157700E0077220600020F2BD1520F2BD1420F2BD012062
:206E3000F2BD00BFD443002038B50546EC6854B1E06808B103F08AF9606908B103F086F9A1
:206E5000204603F07BF910220021284601F038FAFF20687231BD000038B501460B48036898
:206E7000002200E0521C0A4C2578D0B2A8420AD21406240D185B0028F4D11022181901F058
:206E90002FFA002032BD152032BD00BFD4430020CF43002030B50146002200230B4804781E
:206EB000A34211DA0A4D2D681C01285D50B12819C06820B1074C007F256805EB0010884200
:206ED00008BF521C5B1CE9E7D0B230BD664F0020E44E0020D443002010B5002200E0521C24
:206EF00007490B789A4209DA06490C681301E15A0029F4D08142F2D1E01810BD002010BDB9
:206F1000CF430020D443002010B50246002300E05B1C084801788B4209DA074C206800EB32
:206F3000031041880029F3D09142F1D110BD002010BD00BF664F0020E44E002070B50246D7
:206F5000002400E0641C0D4B1D78E0B2A84212D20B480368260603EB165358880028F1D046
:206F7000D8889042EED1D8680028EBD040888842E8D1184670BD002070BD00BFD8430020D0
:206F9000E44E0020F0B50024074600E0641C0B4803789C4210DA0A4D2E6806EB04135888AE
:206FB0000028F3D01D78062D01BF18798842DE88BE42EBD11846F0BD0020F0BD664F002024
:206FD000E44E00201CB50446207804280AD10020019000900A46E188207A132303F024FCB8
:206FF000122210E0022818BF062805D100222046FFF7E8FD142206E003280BD1002220464A
:20701000FFF704FE0622E18802B0BDE81040052003F02EBC13BD70B504460D46E668F068F6
:2070300018B103F093F80020F06029462046FFF74DFE002075773082708270BD38B504465F
:207050000D466088FFF752F82A4600212046FFF7DDFD2046BDE83240FFF7E6BE1CB5ADF851
:207070000410ADF806200949094C0B7800945B1CDAB2002A06BF012301221A460B70D2B2CB
:2070900001AB162103F0D8FB16BD00BF684F00209B6B01002DE9F843814688460026264C49
:2070B000264F17E02168320601EB1255287880B1E88848450DD1B8F1070F04BF6888FFF72C
:2070D00015F8424600212846FFF7A0FD2846FFF7ABFE761C3978F0B28842E3D3B8F1000FBF
:2070F00027D117E02168320601EB1257387800281CBF787AFF280CD0F888484509D138466E
:2071100003F072FB14213846FFF75CFF3846FFF78BFE761C0A490A78F0B29042E2D3042446
:20713000FF224946A0B203F0A3FB641CA0B20828F6DBBDE8F18300BFE44E0020D843002074
:20715000664F002070B504460D4616460C2001F095F878B190210170FF22022342700371CB
:207170004480C580866001460348007803F0EEF8002070BD132070BD654F0020F8B50C46AD
:20719000154600261C4F1D4940B1012815D0042818D006281ED0072821D02AE0162C26DAF2
:2071B0001622002107F10C0001F08AF82246294607F10C0001F094F81CE0022C17D12888D5
:2071D000388117E0082C12D138462946082200F00CFF0FE0012C0AD1CA69283103E0012C33
:2071F00005D1CA6B4831287800F03AF802E0182600E002263046F2BD1C40002044400020CC
:2072100010B50B4600240C4920B1012808D0042809D00DE015220C31184601F061F808E007
:207230000889188005E01846082200F0DEFE00E00224204610BD00BF1C40002080B5002112
:20725000C00706D5044B05481022072100F08AF90146084602BD00BFCCB8010044400020D7
:2072700010B50B7884074CBF43F0020303F0FD0304064CBF43F0800303F07F0304074CBF9F
:2072900043F0080303F0F70384064CBF43F0200303F0DF0310F0AA0F0B7003D0107840F034
:2072B0000C0003E018B9107800F0F300107010BD2DE9F8430D4600272878022814461E46F3
:2072D00067D1696808784978DDF8208000EB012080B25FEA08021CBFB0F5285F0B205BD1F0
:2072F0004FF42851401A08D0401E21D0401E2FD0401E25D0401E31D04BE0DDF82490E8682E
:2073100003F074F880B2A0EB08024A45BCBFA0EB08001FFA80F909EB0800162806DAA6F850
:2073300000904A46E86800EB08010DE00D2732E0E8680088022131802070000A60702AE086
:20735000062030800622E968204600F0C9FF22E001203080E9680A7822701CE0E868B0B1CB
:20737000082131800288227003881B0A63704188A1704288120AE270818821718288120AB1
:207390006271C188A171C088000AE07103E0308001E0378001273846BDE8F2832DE9F047D4
:2073B0000F46814638780024022890461D466DD17868089E01784078DFF8D8A001EB002119
:2073D00089B24FF42852891A06D0491E29D0491E4ED0491E39D059E0F86803F007F880B21A
:2073F000B04204D3A919162903DB0D244FE007244DE0FB682A464146981900F071FFAD19EC
:20741000F868ADB2C5F116020021401900F058FFDAF8000000281CBF0268002A37D000217D
:2074300023E08EBB022DE0D198F8000098F80110FA6800EB01201080DAF8000000281CBF0C
:207450000268002A23D001210FE0EEB9062DCCD1F8680622414600F043FFDAF800000028D2
:207470001CBF0268002A12D00321484690470EE056B9012DB9D198F80000002813BF0128BA
:20749000F9680870802402E00B2400E001242046BDE8F087DC43002001490870704700BF50
:2074B000A7450020F8B51A4C1A4D1B4F20702878C00002F0E7FC386048B32878800002F062
:2074D000E1FC01001548016004D13868BDE8F24002F034BE4FF6FF76304603F019F83968FB
:2074F000002006E021F8306001EBC00300225A60401C2A789042F5DB052003F0BDF920783C
:2075100003F0BEF9BDE8F240054803F075B9F1BD604F0020694F0020D84E0020E04300208E
:20753000A97B010038B50D46290417D50C4A107802F0BCFA04000ED02078B02808D12046A6
:2075500003F0A2F920B1217904F1080003F0A0F9204600F0A5FE85F4004032BD002032BDE9
:20757000604F00203EB504001D460FD0ADF800108DF802200194684603F08EF9010006D102
:207590002DB16089294603F08BF93EBD02203EBD3EB505460C4603F087F9010008D169468A
:2075B000284603F085F9010002D10CB1019921603EBD10B5144668B9012909D103F07CF989
:2075D00020B92078BDE8104003F056B9012010BD182010BD022010BD024600201AB9034AC9
:2075F00013780B7070470220704700BF614F002080B50021C00706D5044B0548102204216B
:20761000FFF7B0FF0146084602BD00BFE8B80100B440002038B504460D4D03F051F9288077
:207630002946608803F050F938B120892988884228BF08462880162032BD2189288881427B
:2076500028BF01466088FEF721FC002032BD00BFFC4C00202DE9F04F064685B0708889461F
:20767000924603F035F9871EBFB2DFF8C8B0DFF8C880324D2989B81E88424CDB5FEA090033
:2076900049D104A80090337B7189308906F10D0203F08EF804003ED060893081BDF8102013
:2076B000217A708803F018F95FEA000933D13079B91E0022039089B201920291CDF80080F2
:2076D000DBF80030BDF810207088214600F0E6F85FEA00091FD16389B8F80020DBF80010A4
:2076F000708803F0FDF85FEA000914D130894FF6FF7188421CBF401C3081BBD10BE05FEA83
:2077100009003089AAF8000008BF4FF00A09484605B0BDE8F08F28890028F0D0698890FB60
:20773000F1F028802946708803F0DEF80028EFD01620EDE7E04E00203E4F0020FC4C00202C
:207750003EB54D681821144601916A880092AB88AA682988408800F0A1F9162802D100214E
:20777000A9603EBD01001CBF298821803EBD00002DE9FC41064688461446002000270DE0D1
:20779000019068880090AB88AA68708800F086F9162817D10021A9607F1CFFB20C490A78A9
:2077B000974213DAD8F804100C237B430B441D46298859B1781C90421BBF988900281820F4
:2077D0001620DDE70028E7D029882180BDE8F681614F002070B505460C4603F089F801004B
:2077F00006D14FF6FF7003F083F8010017D00D80002200E0521C0B4B1D78D0B2A8420ED264
:207810004B68D6B20C256E43334418880028F1D10C222146184600F063FD002070BD092081
:2078300070BD00BF614F0020F8B5054600260E4C2178F0B2884213D26A68F3B20C214B43E8
:20785000D718388860B1B86808B102F07FFC0C220021384600F034FD00203880761CE7E7EC
:207870004FF6FF712980F1BD614F00207CB50C78022C10D14C682578647805EB042542F6DA
:207890000216ADB2B54206D1069C00940225019502F00CFE76BD012076BD00002DE9FE4FBA
:2078B0000E468246307AC10693461F464FF000090CD5584603F020F8030000F0E8800A2294
:2078D0003146504698475FEA00094DD130780C9D0D9CDDF8388002281AD170680178407897
:2078F00001EB002189B24FF42052891A012910D9891E3AD0491E14D0FD397AD0491E00F0F2
:207910008180491E6DD0491E73D0491E00F09580ABE0002C2AD1F06801782980027841684D
:2079300087E0002C22D101202880F1680A783A7000217089401C80B202F0E2FF298860B126
:207950000278921C51182980418979704289120ABA7041680278F81C6CE0091D29800422A1
:207970000021781C00F0ACFC93E0002C66D1F0680688042129803E70320A7A700DF102014B
:20799000304602F0BDFF040021D0D4F80C80BDF802204FF6FF766B46314602F0B5FF40B90E
:2079B000237862683C48022102F0B2FF08B9ADF8006098F8000002280BD1D8F804100222A4
:2079D000381D00F08DFC2888801C288001E0ADF80060BDF80000B870BDF80010090AF970D1
:2079F00057E0002C2AD1F0680168504602F056FD02E01CBBF0680088022129803870000A66
:207A1000787046E0F06802F0F1FC80B2A042B8BF4FF007093DDB844208BF002205D008EBA8
:207A300004028242B4BF4246021B2A8092B2F0680119384600F054FC2BE014B14FF00B0913
:207A500027E0F0680721298002783A7043787B704188B9704288120AFA7001793971C2886C
:207A70007A71C088000AB87113E0584602F054FF5FEA00090BD00F980290CDF80480009477
:207A90002B463A4631465046C847814601E04FF00E094846BDE8FE8F3AB801002DE9FE43C1
:207AB0008146884616461F4602A9404602F028FF04002BD0BDF8080002F032FF844618B3A2
:207AD0000A980B9D00903B460195324621464846E0470746D8B9FE2D19D02078022816D176
:207AF00060680178407801EB002142F6021289B291420CD13078717800EB012082B24146E1
:207B1000484600F05FF802E00E2700E001273846BDE8FE831FB58DF80820FE23120A8DF87A
:207B30000920019300240094022302AAFFF7B6FF04B010BD38B5084A0D461168044602F07C
:207B5000ADFC800705D529462046BDE8344002F0EBBE012032BD00BFE04300207CB50546F4
:207B70004FF6FF7601AC009402230A4A3146012002F01EFE0BE0E0680168284602F0C8FC1B
:207B9000BDF8042000233146204602F0BDFE0400F1D173BD44B8010010B50129044605D04E
:207BB00002290ED1012102F01BFE50B9204602F09FFE08B1FFF738FE2046BDE81040FFF74A
:207BD000CDBF10BDF8B50D4C0E462178FF290546174611D00A2000F051FB68B1B1210170D6
:207BF0000022427002714580C680078101462078BDE8F44002F0AABBF1BD00BFA745002013
:207C1000002900D0704738B502F0A6FD04002DD02079174D40F010002071296831B38A6DE7
:207C30005AB1087810B1C878020706D5E06A08B102F084FA2868806D0AE0C86D70B1097813
:207C500001290BD1E06A08B102F078FA2868C06D1C2102F01FF9E062286838B12968C87817
:207C7000410703D5207940F00200207131BD00BF304F0020F8B52D4E0446306800280D46A7
:207C900049D0C188A14246D14178062936D1017819B3816ED1F89830C26ED90705D5177B48
:207CB000F90702D5072242701EE0C3F3400100291FBFD168C1F340010029092109D1C3F3F5
:207CD000800100291EBFD168C1F38001002902D00B21417008E0164800E0164800680028B3
:207CF0001EBF40680028804729462046FFF788FF30684178122916D1002009E011290ED119
:207D1000280018BF322529462046FFF779FF284602F00EFE07E029462046FFF771FF2146C5
:207D3000284602F009FE0120F2BD00BF304F0020384F0020344F00202DE9F04F364D8DB03F
:207D5000804628688946924608B9122061E0C08802F002FD040008BF14205AD009A802F0DD
:207D7000EFFD29680878F8B109AA0192C96E009102F0EAFD070018BF0127002002F0E8FD69
:207D90008346607981070AD50622002104F10C0000F044FA18B9012504F10C0624E0657972
:207DB00005F00105A61D1FE0C96E019109AA009202F0CAFD050018BF0125002002F0C8FD56
:207DD0000646607981070AD50622002104F10C0000F024FA18B9012704F10C0B04E06779E6
:207DF00007F0010704F1060B009807A902F0B4FD019805A902F0B4FDCDF810A003960295F4
:207E1000CDF804B0009705AB07AA4946404602F0ABFD0DB0BDE8F08F304F0020F8B52F4F87
:207E30000D4639680646C88802F096FC040001D11420F2BD3968087830B3002002F088FDCA
:207E500001460622304600F04BFA02F07DFD00B10120B071607981070DD50622002104F118
:207E70000C0000F0DBF930B9062204F10C01284600F036FA2EE00622A11D284600F030FA05
:207E9000607900F0010026E0607981070ED50622002104F10C0000F0C1F938B9062204F1BC
:207EB0000C01304600F01CFA012007E00622A11D304600F015FA607900F00100B0710020BB
:207ED00002F046FD01460622284600F009FA02F03BFD00B10120A8710020F2BD304F00200A
:207EF0000A4A1268D16E71B9926E92F895100B0703D54168C1F3C00129B992F8331001292B
:207F100001D11820704702F033BD00BF304F002010B52620FDF7C0FD0446C0B268B102209D
:207F300000F0ACF948B110210170002242700146E0B2BDE8104002F009BA10BD8B4208BF49
:207F5000824204D90B1C021C002100207047002B08BF002A0BD10B1C021C00210020002B8A
:207F700008BF002A1CBFC943C043FBF79EB8F0B51C4615460B46024600200021B4FA84F66A
:207F9000202E04BFB5FA85F62036B3FA83F7202F04BFB2FA82F72037F61BB6F1200727BFC6
:207FB00005FA07F400257F42B4403EBF25FA07F73C43B540A34208BFAA4201D3521BA34192
:207FD000404149416D0845EAC4756408761EF1D5F0BD30B502FB01F403FB00444FF00005D9
:207FF000E2FB00542146284630BD002A4AD05FEA000C8B071CD1830722D1102A08D370B4B0
:20801000103A78C978C0103AFBD270BC103238D0042A2CD3082A05D30C2A24BF08C908C017
:2080300008C908C008C908C092072AD0920F22E00B780370491C401C521E22D08B07F7D155
:20805000C30714D18307D8D0121F12D308C903801B0C4380001D121FF8D20AE008C9037095
:208070001B0A43701B0A83701B0AC370001D121FF4D2121D05D00B780370491C401C521E69
:20809000F9D160467047002213460A46194671B510F0030F0BD0002A82BF00F8011BB2F14A
:2080B000010210F0030FF6D1002A08BF71BD11F0FF0141EA0121042A18D341EA0141082AAF
:2080D0000FD30E46102A08D30C460D46B2F10F0312F00F0272C0103BFCD812F0080F18BF97
:2080F00042C012F0040F18BF40F8041B12F0020F18BF20F8021B12F0010F18BF017071BD84
:20811000B0B50C480C4DA84210D00C480C4CA0420CD0001BC71054F8040B10F8011B55F84B
:20813000212054F8041B90477F1EF4D100BF00BFB0BDC04604B90100F8B8010014B901001C
:2081500004B90100EFF3108072B6704700207047014800787047C04608410020024940882F
:208170000978FFF7E7BCC046C0410020ADF1080D01208DF800009DF800000028FBD102B01A
:2081900070470000064A126842B11389994202D1937A984202D01268002AF6D110467047E0
:2081B000E443002008B50221684602F0E5FBBDF8000008BD10B5401E491E4AB111F8013FC0
:2081D00010F8014FA34218BF002002D1521EF5D1012010BDF8B514460646FFF7D3FF0D46F6
:2081F000002818BF446016D1102001F04BFE0A490F68002808BF00200DD0867205814460A3
:2082100000220260C2602FB1394600E011460A68002AFBD10860F8BDE443002028B142B17A
:20823000401E10F8013F994201D000207047521EF7D101207047022908BF01780CD0032982
:2082500008BF017805D004290AD1C278017801EB0261827801EB0241407801EB002070474B
:208270000078704700F8011B0A0A00F8012B0A0C00F8012B090E00F8011B704710B5041C72
:2082900005D004F10C0080B201F0FCFD08B9002010BD002101600481FF2383720C3010BD07
:2082B00008B5002808BF052009D010F8021CFF2918BF042003D10C3801F040FF002008BD8E
:2082D000FFF7E5BE0346104609181A46491E28B111F80139401E02F8013BF9D110467047E7
:2082F000034610461A4628B111F8013B401E02F8013BF9D1104670470249090BC9B200EB21
:208310000130704700D0010070B5094D06460024284631460622FFF74DFF002818BF201C1F
:2083300004D1641C0E350A2CF2DB0A2070BDC046A6420020410000B501EB8000ADF1140D0C
:2083500020300E216A46C0B201F05AFB002814BF00209DF80D0005B000BD08B548B1FFF74B
:20837000D3FF0A2805DAFFF7E5FFC00828BF012000D2002008BD00002DE9F043894699F800
:20839000051090460A25ADF1140D21F03F01C02904D040290CBF0121022100E0002130F04C
:2083B000020227D0032825D021B3022930D11A4C2E460027E41D204649460622FFF7FAFE85
:2083D00030B9761E04F10E0407F10107F3D11FE03D460A2D1CDAB8F1000F19D068000E215E
:2083F0006A4600EB85002030C0B201F009FB78B9E94608E04846FFF787FF05460A2D07DAE1
:20841000B8F1000F04D0404649460622FFF768FF284605B0BDE8F083A6420020011F4FF67E
:20843000FF73042031F8042F5A400A808A78401E82F0FF028A70F5D17047091F042231F855
:20845000043F984208BF081C02D0521EF7D100207047000060B1922206498271064B01606A
:20847000342242811988818073230381002070470220704700010300FE920010024638B58E
:2084900008461D46401E04D0C01E18BFB0F1080012D1104602F074FA041C0ED104980599B9
:2084B00002F072FA2846FDF703FB02F071FA02F073FA02F075FA00E00224204638BD000070
:2084D0002DE9F04F88468246ADF1AC0D299202F043F95C4CE67894F80BB0A57A94F80C90CD
:2084F000071C00F0AB8068460021A422FFF7E8FE2801279A55498DF8046005F0030300F45D
:20851000807605F00405ADF800A0B9F1020F01EA020143EA01024C4B8DF8A0B046EA02019A
:2085300000F4C06603EA010246EA020045EA00054FF00000279508BF01208DF8370002F02A
:20855000BFF9412809DB207B00280CBF002008209DF8991008438DF89900607B002804BFC3
:2085700000208DF8380017D001208DF8380004F1860120220DF13900FFF7B2FE0DF1590057
:2085900004F1A6012022FFF7ABFE0DF1790004F1C6012022FFF7A4FEA07940B18DF826008C
:2085B00004F1500110220DF12700FFF799FE66793EB104F16000B91D06220546FFF7FAFD28
:2085D00068B92079002804BF00208DF8050015D08DF8050004F140010DF106000BE08DF823
:2085F00005600DF1060005F116011022FFF778FE0DF11600A91D1022FFF772FEE07930B1AB
:20861000B8F1000F03D0279941F002012791002100B10121A7789DF89900002F41EA000177
:208630008DF899100CBF002004209DF89910084329998DF89900684602F0B6F92BB0BDE8B5
:20865000F08FC046C0410020FBF9FFFFFCFEFFFF104AB0B50A2402F10A03214613F8015DBD
:20867000A84202D0491EF9D101E0491ECCB2092C09DA1019C4F109074178037801707F1EEF
:2086900000F8013FF8D1092C03DA05200A2100F091FFB0BDF641002038B502F089F9094C6D
:2086B0000A25B0342046FF210622FFF7B7FD18B90020214602F080F96D1E04F10E04F1D128
:2086D00038BDC046F641002070B5084D0A260024B0352846FF210622FFF7A0FD08B9641CFB
:2086F000E4B20E35761EF4D1204670BDF641002008B5FFF7E9FF0228B4BF0A2002200121A8
:208710006A468DF800000520FEF738FD08BD00002DE9F04F704CDFF8C4A1E56988468146D0
:20873000ADF1140D002D4AD1B9F1000F00F09280B8F1000F00F08E80FFF7E6FD06460A2E54
:2087500023DAD8F814702674002F39D0700010216A4600EB86002330C0B201F051F990B9DB
:2087700050460778FF2110226846FFF757FD50B93FB999F80600494600F0010002F020F967
:2087900001E00120A074E56919E004F1E60B0A2700265846FF210622FFF740FD68B97F1E58
:2087B0000BF10E0B06F10106F3D1607C002804BF0A2020744ED094F83660267400E0267CF1
:2087D0000A2E47DA002D35D170000E214A4600EB86002030C0B200F0EDFE207CFFF738FFF7
:2087F0006846FF211022FFF76BFD207C10216A467030C0B200F0DEFE217C0E220801A0EB4F
:20881000410000194946E630FFF76AFDD8F814206AB15046007840B9107C02F11101002312
:2088300000F0010002F0D0F801E00120A074C4F81C804CE0AA68002A3ED12A69002A2FD1DB
:208850006A690ABBEA683AB9A07B08B1FFF724FFFFF74EFF01203BE07000102100EB8600AD
:208870002430C0B200F0A6FEE769217CFA68480000EB8100103225300421C0B200F09AFED5
:20889000E1690020C86022E07000102100EB86002330C0B200F08EFEE1690020486116E0D8
:2088B00070001C2100EB86002230C0B200F082FEE169002008610AE070001C2100EB86007B
:2088D0002130C0B200F076FEE16900208860002005B0BDE8F08FC046C04100205A4F002026
:2088F00010B5054CE06920B1E069FFF7D9FC0020E0610A20207410BDC04100202DE9F043CE
:20891000464D0646287CADF14C0DB04209D12878012101F09DFA2878022101F099FAFFF77A
:20893000DFFF740004EB86040E210FAA04F1200004F120075FFA80F9F8B201F061F8002855
:2089500065D10FA8FF210622FFF768FC00285ED168461C22FFF7B4FC07A8FF211022FFF798
:20897000AFFC04F1230010210BAAC0B2804601F047F890B928480778FF2110220BA8FFF7A3
:208990004DFC50B93FB99DF842000FA900F0010002F016F801E00120A8740FA8FF210E22D8
:2089B000FFF78EFC48460E210FAA00F003FE05461C216A4604F12100C0B200F0FBFD1C21DB
:2089D0006A46054304F12200C0B200F0F3FD10216A460543404600F0EDFD10216A46054374
:2089F00004F12400C0B200F0E5FD04F1250704216A460543F8B200F0DDFD7036102107AAD0
:208A100040EA0504F0B200F0D5FD204300E0002013B0BDE8F083C0465A4F0020C041002081
:208A300010B50024204628B92046FFF767FF641C0A2CF8DB10BD30B50C46410001EB8000FA
:208A5000ADF1140D20306A460E21C0B2054600F0D7FF28B96846FF210622FFF7DFFB08B135
:208A7000002012E09DF80D10002C08460CBF20F0020040F00200814206D08DF80D000E213F
:208A90006A46284600F096FD012005B030BD0000F8B50C464FF6FF711525814215D001F0DB
:208AB0005BFE071C0FD07879B91D0022FFF764FC0A2803DA2146FFF7BEFF00259CB13846F3
:208AD000FFF74CFB0FE014250DE0002621463046FFF7B1FF00B10025761C0A2EF6DB14B155
:208AF000024801F075FF2846F8BDC0466D81010038B50546104659B9084AB0FBF2F151438B
:208B1000401A294601F068FF041C05D0012100E00024284601F064FF204638BD40420F005B
:208B300010B5054C2178A0612620FCF79BFF2078FEF7B2FC10BDC046C0410020F0B5064682
:208B50001A48401C007815460024ADF1240D022808BF0124082B01D1280905D308464100CE
:208B700001EB8001213104E00846410001EB80012231CFB201A81C220021FFF7A1FB1C219B
:208B900001AA384600F03CFF70B99DF81E0007280ADB102808DC0094304605F00101C5F3AC
:208BB000C00201AB01F020FF09B0F0BDC04100202DE9F0470C4690460546994600210622B8
:208BD000ADF1300D09A8FFF762FA2846214609AAFFF7D2FBDFF8D0A006460A2E4ADAFFF777
:208BF000A9FB07464B46314640463A46FFF7A6FF684600211422FFF763FB740004EB860485
:208C100004F1240010216A46C0B200F0F9FE88B96846FF211022FFF701FB58B9253404AAA6
:208C30000421E0B200F0ECFE404607F001016A4601F0DEFE06F17000102105AAC0B200F0EE
:208C5000DFFE68B905A8FFF7E9FB042404AD35F8041F19B1AA784046FEF75CFF641EF6D14B
:208C7000B80804D3514609784046FEF763FF3046FFF7EEFCB9F1040F12D1524650780228D8
:208C90000ED1D079002100B10121907808B141F00401107B08B141F00801404601F0ACFE12
:208CB0000CB00020BDE8F087C04100202DE9F04F0C4637498446487CADF11C0D0690CA7837
:208CD0000092C87A91F8059091F80CA091F80EE00590487A8A780490087A8E790390887ADB
:208CF0004B780290C8798F8A01900879E0460025A8F58068B8F1180F0ED8DFE808F04442D8
:208D1000403E3D3734320D0D302E2C2A270D0D250D22201D1B1917C0BCF12A0FA8BF0225CC
:208D300032DA6046FCF7B8FE20802DE0069E01E050311CE0B14602E06031262218E0CA465F
:208D500002E08631602213E0D64602E0FFF7BCFC12E0CDF814E005980490049803900398A3
:208D70000290029801900198024608E0403110222046FFF7B5FA07E00090009B03E0104664
:208D9000FAE73846D0E72370284607B0BDE8F08FC04100202DE9F041134F4FF000080A2591
:208DB000202607F1E60430460E21224600F028FE58B12046FF210622FFF782FAE01DFF2112
:208DD0000622FFF77DFA84F80D806D1E04F10E0406F10606E7D1B87B08B1FFF75DFCFFF767
:208DF00087FCBDE8F081C046C04100207CB5894D144602460026A2F58062182A1AD8DFE860
:208E100012F0FE00F800F100E900E200DC00D500D0001900C500BE00B700AE00A300190050
:208E3000190080006F00680054004C00420039002C0024002A2880F28580022940F0828021
:208E50002188FCF70FFE0646E1E0012940F0DE80002C00F0DB801135A6E0102940F0D68092
:208E7000002C00F0D3802846503010222146FFF737FACCE0012940F0C980002C00F0C68014
:208E900029468D1D90E0262940F0C080002C00F0BD8005F160002622E8E7012940F0B68024
:208EB000002C00F0B3806D1D7EE0602900D13CB9012940F0AB80002C00F0A8800D3573E0BE
:208ED00005F1860021466022FFF70AFA012068739DE0012940F09A80207801F091FD96E0A9
:208EF000012940F093802078022800F38F800C3528702078022814BF301C012001F084FDE4
:208F100085E0072940F08280611C68460622FFF7D9F9207869463246FFF72EFA04460A2C02
:208F300010DA01F035FC38B92046FFF7E7FC00F059F9FFF72FFF6AE02A46012002F12C0580
:208F5000285564E0022662E001295FD1A87B21780028A9735BD12078012858D1E9E701296C
:208F700054D12478072C51DB102C4FDC0B3537E001294BD124780A2C48DA093530E0012951
:208F900044D12478022C41DA083529E000293DD101F0FEFB10B9FFF743FDC8E701240F3549
:208FB0001EE0012932D10A35247819E001292DD12478022C2ADAED1D12E0102926D12B460F
:208FD00003F1400051E7012920D12478022C1DDA2D1D05E0012919D12478042C16DCED1C2F
:208FF0002C7014E0012911D12478022C0EDAAD1CF6E702290AD120881435288007E00129BD
:2090100004D12478022CD8BF6D1CE9DD182630467CBDC046C0410020022001F02DB80000AF
:2090300008B528B103480068426803480121904708BDC046D801001000400340054908B5A7
:209050003039096849698847014A0021116008BD84046042D8010010F8B50C4C206880479C
:20907000054600F039FA06460020FFF745F9FFF7E5FF07463046FFF7D3FF1FB1044901202F
:2090900048700870616828468847F8BDF0430020BC41002008B5054B303B1B689B69984787
:2090B000014A0021116008BD84046042D80100100B4601461846FFF7EDBF08B54FF48010C3
:2090D000012269460090002000F034FA08BD00002DE9FE4300F000FADFF80481814608F1BE
:2090F000020000880027001F84B2042C5ADBFF254FF6FF7620466946042200F03DFCBDF8FE
:2091100000309E4237D0002B35D0D80BC2032FD19D422DD0381FDDB280B2042815DBB0F59B
:20913000805F12DA00F18852126801A90A60BDF804108D4207D0BDF80610401A001F80B216
:209150000428ECDA01E0012300E00023BDF802001BBB211A001D8BB282B207F18851184680
:2091700000F00AFCBDF80200C119091D8FB214E0BDF8020011E0BDF8020003466FF30E03E2
:2091900063B9011D8C4208DA002000F075FF4846FFF746FF0020BDE8FE83241A241FA4B26B
:2091B000042CA7DAFFF758FF3FB10C484FF088513A46FFF77DFFFFF780FF4846FFF730FF2B
:2091D0004246507800281CBF0020011C03D1C7F58054391DA0B25180BDE8FE8304D0010017
:2091F000BC41002010B5084C207860B96088C0F5805080B2B0F54D7F05DA00F0D3F90020AD
:209210006070FFF765FF10BDBC41002070B501F0BFFAF8B9104CE07B01280ED000252B3468
:209230002E4614F8010F012803D13046FFF766FB2570761C0A2EF4DB08E0FFF7F1FB0021AB
:2092500004F12C000A22E173FFF73AF8FFF7CAFFFFF7A0FD70BDC046C04100202DE9F04148
:209270000446764DA178A869ADF1180D891F00F0DE80C91E00F0C980491E5FD0491E48D0B9
:20929000C91E3CD0481E40F0D480287A697AB8B96878002831D0A08801F05EFA071C00F05E
:2092B000C880A07A40080FD3787968B1E168890A0AD2B91D01AAFFF75FF80A2804D1032157
:2092D000A08801F08DFBB4E0287B022802D1A07A0009F4D3A088797904F10802FFF7F0F8C8
:2092F000A869002800F0A5804368002B00F0A18000210A46A08898479BE00521E0E7002821
:2093100000F097804368002B00F0938062780221F0E7FCF7E5FB002800F08B80A86950B181
:20933000076847B1206900906189227B637BE01C3C46A0477DE060890121C2E767784FF0A4
:209350000008002F52D1A17949084FD3EF69002F4CD101A841460E22FEF7B2FFA08801F053
:20937000FBF9071C65D0606940B97879B91D06228DF80A0001A8FEF7B3FF19E06669307C8D
:20939000062206F111018DF80A0001A8FEF7A8FF07F10C00B91D0622FEF7A2FFB81D062223
:2093B00006F11101FEF79CFF307C40F002007871A1799DF81120C1F3800010438DF8110040
:2093D000080905D39DF8110040F008008DF8110001A82146FFF79CF928B92878022100F0F1
:2093F000ADFB404626E0A8694FF0150808B34368FBB1A088627801219847B8F1000F18D007
:20941000A86943680321424674E7E078211D0022FEF7B2FF0A280CDA410001EB800004F161
:209430000C0225300421C0B200F0C4F801E0FFF7EDFE012006B0BDE8F081C046C0410020A0
:209450002DE9F84F0C468146E00BC00318BF84F400443AD1002C08BF002037D01C4D286827
:20947000804783461B4801884FF0000801264746AA4606FA07F2224203D17F1C0F2FF8DB98
:209490001DE04D46EA01FB00001DA2EBC502CD01A5EBC1018D1AED189B1A5B18C158BE40CA
:2094B0001FFA86F82D1811B11B18586888474846414600F097FD10B9002028606860DAF898
:2094D00004105846884788EA0404A0B2BDE8F88FF043002034410020B0B54FF0805000F5B2
:2094F000EC74D0F8D801094D816828468847C7B257B1206842680021284690472068816855
:20951000284688470028F9D13846B0BD0040034010B50346002A08BF00200AD05B1E491EC5
:2095300011F8014F13F8010F844201D1521EF7D1001B10BD2DE9FC470C460546FEF7DCFE2A
:20955000174F81463868164680478046FFF7C4FF8246B20021464846FFF7AAFD5046FFF7F4
:209570005FFD02E02D1D241DADB23046411ECEB278B128466946042200F0FEF968462146F6
:209590000422FFF7C5FF0028ECD00449012048700870796840468847BDE8FC87BC410020DE
:2095B000F043002008B50020012269460090FFF7C1FF08BD2DE9FE4F3B4D4FF0000A934681
:2095D0000290884685F801A000F0EEF9071C1BD0B8F1000F08BF544614D0ABF101094646E9
:2095F0005446384601A9012200F0C6F99DF8041019F8010F884205D17F1C761E04F1010434
:20961000BFB2EED1A0454CD06F8808F103004FF6FC7440F6FC7104EA0006B819814204DA58
:20963000FFF7C0FFFFF754FD6F88E41C46F40040ADF80040BB19ADF80200694601229CB22D
:209650002046FFF777FFBDF80200694601226FF3DF30ADF802002046FFF76CFFB010594661
:20967000C2B23846FFF766FF02986946012240F40040ADF800002046FFF75CFFBDF800009C
:20969000694601226FF3DF30ADF800002046FFF751FF687820B968888019001D688000E0FF
:2096B00082465046BDE8FE8FBC410020B0B505460F4614466800ADF1200D0E2100EB8500BC
:2096D00004AA2030C0B200F09BF9002828D104A8FF210622FEF7A2FD10BB7035E8B21021A2
:2096F0006A46054600F08CF900282BD16846FEF795FE57B9684600211022FEF78FFD08BB3B
:2097100068461022FEF7DCFD14E038466946FEF794FE40B924B100206946FEF78EFE08B904
:20973000002010E0078081788C420BD084700CB9002101806846FEF771FE284610216A4624
:20975000FFF738FF012008B0B0BDF8B50F464FF6FF7116461524814212D000F0FDFF68B190
:209770004279811D10460022FEF706FE0A2812DA39463246FFF79AFF00240CE014240AE039
:209790000025394632462846FFF790FF00B100246D1C0A2DF5DB2046F8BD0000F0B5554DE3
:2097B00028780C46E10BADF11C0DC90372D1A00860D2E869296A62080ED2E00828BF84F09A
:2097D000040480F09480600904D300F029F984F010048CE000208BE0868861B905F11600E8
:2097F000454A00904FF6FF710223012000F0E0FF0146296221B304A80090002701970223AA
:209810000293FF220392EA8A30460DF11203FEF745F858B99DF813009DF81220296A12EBAE
:20983000002204D049893046FFF78FFF296AEA8A08463B464FF6FF7101F066F801462962AA
:20985000A869002918BF84F001041AD168B143685BB1E8698088012100229847A869EF69CE
:209870004368B888032100229847FFF739F884F001043CE000200146FEF74AFF18B184F02A
:209890000204012102E0022184F00204287800F055F92CE000F00AF9071C26D03878012644
:2098B000B0380CD0401E02D01F3816D019E03879B8B97888F9883A89FFF747FF12E03D4657
:2098D00028791E2803D178880021FFF7E1F8297905F1080000F0DCFF03E03846FFF7BEFC51
:2098F000064616B13846FEF7DBFC84F40044A0B207B0F0BDC041002044B80100BFB50C46A5
:20991000E00BC00308BF002030D01948007800F0CDF8071C27D017493B68786809681A6923
